:0400000057EF00F0C6
:10000800FACF2CF0FBCF2DF0E9CF2EF0EACF2FF06E
:10001800E1CF30F0E2CF31F0D9CF32F0DACF33F0A0
:10002800F3CF34F0F4CF35F0F6CF36F0F7CF37F022
:10003800F8CF38F0F5CF39F09EB09E90F2A410D0EA
:10004800F2946FEC09F03CC03AF03DC03BF0CB0EA7
:100058003A243C6EF30E3B203D6E66EC09F01D2AF7
:1000680039C0F5FF38C0F8FF37C0F7FF36C0F6FFD4
:1000780035C0F4FF34C0F3FF33C0DAFF32C0D9FF14
:1000880031C0E2FF30C0E1FF2FC0EAFF2EC0E9FF18
:100098002DC0FBFF2CC0FAFF1100FACFC7F0FBCF31
:1000A800C8F0B4ED07F0C2EF08F0000E956E836853
:1000B800000E8C6E33EC08F0F194950E2AEC09F0E2
:1000C800F30E436ECB0E426E54EC09F0F28E010132
:1000D800576F020E00010001E46F01015751010141
:1000E800586F020E00010001E56F0101585101012E
:1000F800596F030E00010001E66F0101595101011A
:100108005A6F020E00010001E76F01015A51010107
:100118005B6FDF0E00010001E86F01015B51010E0A
:10012800ADEC04F0800E4AEC09F00DC0DCF00EC016
:10013800DDF00FC0DEF010C0DFF00101576FF70EE1
:1001480000010001E06F01015751000E56EC07F065
:1001580011C0DCF012C0DDF013C0DEF014C0DFF017
:100168000101576FF70E00010001E06F01015751BF
:10017800010E56EC07F001C0DCF002C0DDF003C050
:10018800DEF004C0DFF00101576FF70E0001000137
:10019800E06F01015751000E95EC08F0C3C0DCF088
:1001A800C4C0DDF0C5C0DEF0C6C0DFF00101576F86
:1001B800F70E00010001E06F01015751020E56ECE5
:1001C80007F005C0DCF006C0DDF007C0DEF008C0AF
:1001D800DFF00101576FF70E00010001E06F010128
:1001E8005751010E95EC08F0000E4AEC09F0010198
:1001F800576F020E00010001C66F01015751D0CFA1
:10020800C5F0C3C0DCF0C4C0DDF0C5C0DEF0C6C0B8
:10021800DFF00001000E00010001E16F0001BB0EDC
:1002280000010001E06F0101576F080E0001000195
:10023800E26F010157510101586FF40E00010001EE
:10024800E36F0101585151EC06F0000E436E680E41
:10025800426E2C0EFCEC07F00101576F000E1E6E6B
:10026800010157510101576F000E1F6E01015751CF
:100278000101576F000E1C6E010157510101576FA4
:10028800000E00010001B56F01015751D180ABA2EA
:1002980008D0AB98AB880101576F000E1C6E0101A6
:1002A80057519EBA02D0ABA4F3D03BEC09F0196EBB
:1002B8000101576F000E1D6E0101575119503E0A7A
:1002C800D8A411D00101576F000E1C6E01015751BF
:1002D8001C50010D200EF324D96E000EF420DA6EA6
:1002E800300EDF6ED4D01C50D8B4D2D01966C5D029
:1002F800FF0E0101576FFF0E586F1C500101596F17
:100308005A6B010157510101592701015851010147
:100318005A23200E01015925D96E000E01015A21D8
:10032800DA6E0D0EDF62A9D022502D0AD8A4A5D00E
:100338000101576F000E1C6E01015751000E00019C
:100348000001D66F200E00010001D56FE8EC06F021
:100358000001D5C015F00001D6C016F021504F0A93
:10036800D8A428D0010E0101576F586B596B5A6BEE
:1003780000010001B5510101E82A05D0D89057378E
:10038800583759375A37E82EF9D701015751010123
:10039800010128130101585101010101291301012B
:1003A8005951010101012A1301015A5101010101A9
:1003B8002B132CD0010E0101576F586B596B5A6BD8
:1003C80000010001B5510101E82A05D0D89057373E
:1003D800583759375A37E82EF9D70101571F581F90
:1003E800591F5A1F01015751010101012817010125
:1003F8005851010101012917010159510101010158
:100408002A1701015A51010101012B1700010001AE
:10041800B551010D0001800EF324D96E0001000EC4
:10042800F420DA6E23C0DFFF00010001B551010D91
:100438000001600EF324D96E0001000EF420DA6E7C
:1004480024C0DFFFD8EC02F0000E00010001D66FD7
:10045800200E00010001D56F000E00010001D86FC9
:10046800000E0001D76F000E00010001DA6F080EC0
:100478000001D96F0EEC09F00BD01C50010D200EB5
:10048800F324D96E000EF420DA6E19C0DFFF1C2A9F
:10049800030E1D5CD8B036D0010E0101576F586BA2
:1004A800596B5A6B00010001B5510101E82A05D0CA
:1004B800D8905737583759375A37E82EF9D70001A7
:1004C8000001ED510101571501015B6F00010001A9
:1004D800EE510101581501015C6F00010001EF5157
:1004E8000101591501015D6F00010001F051010181
:1004F8005A1501015E6F01015E515B115C115D11BE
:10050800D8A450D000010001B551010D0001600EC2
:10051800F324D96E0001000EF420DA6EFF0EDF6EB0
:1005280000010001B551010D0001800EF324D96EC0
:100538000001000EF420DA6EFF0EDF6E010E0101DD
:10054800576F586B596B5A6B00010001B551010187
:10055800E82A05D0D8905737583759375A37E82EF0
:10056800F9D70101571F581F591F5A1F0101575129
:100578000101010128170101585101010101291741
:1005880001015951010101012A1701015A510101C3
:1005980001012B17D8EC02F00101576F000E1D6EF8
:1005A80001015751040073D628C151F129C152F1F4
:1005B8002AC153F12BC154F100010001B52B0001F0
:1005C800E86F000E1C6E0001E851B5C08CFF0001F9
:1005D8000001B551200AD8A4BBD10001E86F000E74
:1005E80001010101506F0001E8510001E86F000EA0
:1005F80001010101556F0001E85101010101555147
:10060800800A630FD8B01ED10F0140A706D00F0192
:1006180030A703D00F0120B710D1010101015551B6
:10062800010D0001800EF324D96E0001000EF420A4
:10063800DA6EDF5000010001BB6F01010101555165
:10064800010D0001600EF324D96E0001000EF420A4
:10065800DA6EDF5000010001BC6F010155C1E8F0FE
:100668000001E96BE8BFE907010E0001E827000E69
:10067800E9230001800E0001E825D96E0001000E73
:100688000001E921DA6EDF5000010001BD6F0101B0
:1006980055C1E8F00001E96BE8BFE907010E000168
:1006A800E827000EE9230001600E0001E825D96E55
:1006B8000001000E0001E921DA6EDF50000100019F
:1006C800BE6F010155C1E8F00001E96BE8BFE90719
:1006D800020E0001E827000EE9230001800E000148
:1006E800E825D96E0001000E0001E921DA6EDF501D
:1006F80000010001BF6F010155C1E8F00001E96B7D
:10070800E8BFE907020E0001E827000EE92300010F
:10071800600E0001E825D96E0001000E0001E921F4
:10072800DA6EDF5000010001C06F010155C1E8F029
:100738000001E96BE8BFE907030E0001E827000E96
:10074800E9230001800E0001E825D96E0001000EA2
:100758000001E921DA6EDF5000010001C16F0101DB
:1007680055C1E8F00001E96BE8BFE907030E000195
:10077800E827000EE9230001600E0001E825D96E84
:100788000001000E0001E921DA6EDF5000010001CE
:10079800C26FF30E00010001C36F500E0001C46F59
:1007A800000E0001C56F040E0001C66F50C1C5F0F0
:1007B8000001E86F020E00010001C66F0001E85158
:1007C8000001E86F080E00010001BA6F0001E8514E
:1007D800C3C0DCF0C4C0DDF0C5C0DEF0C6C0DFF0C9
:1007E8000001000E00010001E16F0001BB0E0001D5
:1007F8000001E06F0001E86F080E00010001E26FE0
:100808000001E8510001E96FF40E00010001E36FF7
:100818000001E95151EC06F001010101502B0001E2
:10082800E86F000E00010001B56F0001E851000EED
:100838008C6EFA0E00F0E82EFDD7040E01010101BE
:100848005527DBD60001E86F010E00010001C46FD7
:100858000001E851000E0101010151150001E86F86
:10086800000E0101010152150001E96F000E01019E
:10087800010153150001EA6FFF0E01010101541532
:100888000001EB6F190E06D00001D890EB33EA3364
:10089800E933E833E82EF8D70001E85100010001F8
:1008A800BB6F53C1BCF052C1BDF051C1BEF0000EC8
:1008B80000010001ED150001E86F000E00010001C4
:1008C800EE150001E96F000E00010001EF150001AF
:1008D800EA6FFF0E00010001F0150001EB6F190E21
:1008E80006D00001D890EB33EA33E933E833E82E39
:1008F800F8D70001E85100010001BF6FEFC0C0F058
:10090800EEC0C1F0EDC0C2F0C3C0DCF0C4C0DDF081
:10091800C5C0DEF0C6C0DFF00001000E0001000116
:10092800E16F0001BB0E00010001E06F0001E86FFC
:10093800080E00010001E26F0001E8510001E96FB3
:10094800F40E00010001E36F0001E95151EC06F0DB
:100958001200E8CF50F1000E01010101536F000EA3
:100968000101546F000E0101556F000E0101566F11
:10097800800E4AEC09F0738AE4C0D5F0E5C0D6F0E1
:10098800E6C0D7F0E7C0D8F0E8C0D9F0010101010E
:10099800505165EC08F000010001E851600B606EF1
:1009A800E8C0E9F0100E0001E917E950FF0AD8B4D1
:1009B800608460CF50FF53C1DCF054C1DDF055C1F5
:1009C800DEF056C1DFF00001E96FF70E000100010B
:1009D800E06F0001E951000E95EC08F053C1DCF01E
:1009E80054C1DDF055C1DEF056C1DFF00001E96FFA
:1009F800F70E00010001E06F0001E951010E95ECCE
:100A080008F01CD00001E96FF70E01010101516FD8
:100A18000001E9510AD001010101516901010101F7
:100A280052692ED00101010151690001E96FF70EE9
:100A380001010101526F0001E95122D09F0E00010E
:100A4800E96FFF0EEA6F00010001E851600B000139
:100A5800EB6FEC6B0001E9510001EB130001EA5167
:100A68000001EC130001EC51000AD8A4DBD7000107
:100A7800EB51BF0AD8B4CFD7600AD8B4C3D7D2D7FE
:100A880053C1DCF054C1DDF055C1DEF056C1DFF0D2
:100A980051C1E0F0000E56EC07F053C1DCF054C130
:100AA800DDF055C1DEF056C1DFF051C1E0F0010EB6
:100AB80056EC07F053C1DCF054C1DDF055C1DEF04F
:100AC80056C1DFF052C1E0F0020E56EC07F053C1F8
:100AD800DCF054C1DDF055C1DEF056C1DFF052C183
:100AE800E0F0030E56EC07F053C1DCF054C1DDF022
:100AF80055C1DEF056C1DFF052C1E0F0040E56ECED
:100B080007F053C1DCF054C1DDF055C1DEF056C129
:100B1800DFF052C1E0F0050E56EC07F0000E4AEC8B
:100B280009F012000001000E456E0001D70E446E58
:100B380000010001DBA73CD044C0D9FF45C0DAFF63
:100B4800DF50426ED8904232D8904232D89042302C
:100B5800D5C0D9FFD6C0DAFFDF6E20EE01F04450D1
:100B6800D9264550DA22DF50426E050E436ED890E2
:100B78004236432EFCD7D5C0D9FFD6C0DAFF425043
:100B8800DF1200010001D54BD62B44C0D9FF45C068
:100B9800DAFFDF50426E050E436ED8904236432E80
:100BA800FCD74250D5C0D9FFD6C0DAFFDF6E74D06B
:100BB80020EE02F04450D9264550DA22DF50426E2A
:100BC800050E436ED8904232432EFCD74250D5C012
:100BD800D9FFD6C0DAFFDF6E20EE03F04450D926E5
:100BE8004550DA22DF50426ED8904236D8904236CD
:100BF800D8904236D5C0D9FFD6C0DAFF4250DF12AE
:100C080000010001D54BD62B20EE02F04450D92626
:100C18004550DA22DF50426ED8904236D89042369C
:100C2800D8904234E00BD5C0D9FFD6C0DAFFDF6ECA
:100C3800D5C0D9FFD6C0DAFF000EDB8620EE02F061
:100C48004450D9264550DA22DF50426E030E421630
:100C5800D5C0D9FFD6C0DAFF4250DF12000100012B
:100C6800D54BD62B20EE01F04450D9264550DA2238
:100C7800D5C0E1FFD6C0E2FFDFCFE7FF00010001EA
:100C8800D54BD62B44C0D9FF45C0DAFFD5C0E1FF0C
:100C9800D6C0E2FFDFCFE7FF12000F0140B704D054
:100CA800F10E6F166F860ED00F0130B705D0F10E1A
:100CB8006F16060E6F1206D00F0120B784D0F10E02
:100CC8006F166F8400010001E351030B606E000191
:100CD8000001E3B71BD00F0E00010001D66F610EB3
:100CE80000010001D56FDCC0D7F0DDC0D8F0DEC050
:100CF800D9F0DFC0DAF00001E46FF70E000100015F
:100D0800DB6F0001E45196EC05F01AD00F0E0001DC
:100D18000001D66F610E00010001D56FDCC0D7F06D
:100D2800DDC0D8F0DEC0D9F0DFC0DAF00001E46F32
:100D3800FF0E00010001DB6F0001E45196EC05F0A5
:100D4800E2C065FF00010001E3AD658C0F0E0001F4
:100D58000001E66F660E00010001E56F0001E46F17
:100D6800000E00010001E76F0001E45121D00001ED
:100D78000001E751010DF35000010001E025D96E93
:100D8800F45000010001E121DA6E00010001E75191
:100D9800010DF35000010001E525E16EF45000015A
:100DA8000001E621E26EDFCFE7FF00010001E72B3B
:100DB80000010001E25100010001E75DD8A0D7D78A
:100DC8006086F10E6F161200000E00010001DE6F42
:100DD800000E0001DD6F000E00010001DC6F000E47
:100DE8000001DB6F3FD000010001DB510001000171
:100DF800D525D96E00010001DC5100010001D62182
:100E0800DA6EDF50E9EC08F042C0D9F043C0DAF0FE
:100E180000010001D929D8B4DA29D8B43ED000019C
:100E2800DDC0D7F00001DEC0D8F00001D73BD83BC9
:100E3800F00ED817D7510F0BD813F00ED7170001A3
:100E48000001D9510001D72500010001DD6F000123
:100E58000001DA510001D8210001DE6F0001000114
:100E6800DB4BDC2B00010001DB5100010001D52523
:100E7800D96E00010001DC5100010001D621DA6EB3
:100E8800DF50D8B40AD000010001DC51800A800F7D
:100E9800080ED8B4DB5DD8A0A6D7DDC0D5F0DEC07B
:100EA800D6F01200E8CFE1F033D00F010F0E0001A9
:100EB8000001E36F0F01000E27D00F010F0E000194
:100EC8000001E36F0F01040E1FD00F010F0E000188
:100ED8000001E36F0F01080E17D00F010F0E00017C
:100EE8000001E36F0F010C0E0FD00F010F0E000170
:100EF8000001E36F0F01100E07D00F010F0E000164
:100F08000001E36F0F01140E00010001E26F13D01E
:100F180000010001E151000AD8B4C7D7010AD8B4CA
:100F2800CCD7030AD8B4D1D7010AD8B4D6D7070A80
:100F3800D8B4DBD7E2D700010001E3C0D6F0000146
:100F48000001E2C0D5F0DCC0D7F0DDC0D8F0DEC0CB
:100F5800D9F0DFC0DAF0E0C0DBF096EC05F0120063
:100F68000600E9CFC9F0EACFCAF0E1CFCBF0E2CF73
:100F7800CCF0D9CFCDF0DACFCEF0F3CFCFF0F4CF9D
:100F8800D0F0F6CFD1F0F7CFD2F0F8CFD3F0F5CF3D
:100F9800D4F0F2A410D0F2946FEC09F03CC040F009
:100FA8003DC041F0CB0E40243C6EF30E41203D6E17
:100FB80066EC09F01D2AD4C0F5FFD3C0F8FFD2C0F3
:100FC800F7FFD1C0F6FFD0C0F4FFCFC0F3FFCEC00B
:100FD800DAFFCDC0D9FFCCC0E2FFCBC0E1FFCAC069
:100FE800EAFFC9C0E9FFC8C0FBFFC7C0FAFF11008C
:100FF800E8CF44F0000EAC6E000EAB6E44B0AC8887
:1010080044A202D0AC8CAB8C44B4AC8E44A602D0C3
:10101800AB8801D0AB8A44B8AC849E9844BAAB86FE
:1010280044AC02D09D8A01D09D9A9E9A44AE02D0CB
:101038009D8801D09D9842C0AFFF43C0D5F0D5C070
:10104800D6F00001D76B0001D651B06EAC8AAB8EDA
:10105800949C948EACB8ACBE01D0948C1200000E57
:1010680000010001D66F080E0001D56F446E000E16
:1010780000010001D76F44501ED000010001D75174
:10108800010D0001AD0EF324D96E0001000EF4200D
:10109800DA6E00010001D75100010001D525426E2A
:1010A80000010001000ED621436E5DEC09F0DF6EF1
:1010B80000010001D72B070E00010001D765DDD71D
:1010C8001200E8CF42F0420600010001D5070001F6
:1010D8000001D60700010001D70700010001D80769
:1010E8004240E842C00B706E00010001D5517012F9
:1010F80000010001D639E842F80B716E00010001C9
:10110800D851711200010001D9A5718C00010001AC
:10111800D9B1718ED7C072FF00010001D9B3728CAA
:101128001200E8CFE1F000010001E16708D00F01EB
:101138000F0E00010001E36F0F01180E07D00F0119
:101148000F0E00010001E36F0F011C0E00010001EA
:10115800E26F00010001E3C0D6F000010001E2C027
:10116800D5F0DCC0D7F0DDC0D8F0DEC0D9F0DFC0E4
:10117800DAF0E0C0DBF096EC05F0120001EE00F0CA
:10118800500EEE6AE806FDE100EE60F0670EEE6ACA
:10119800E806FDE100EE01F0270EEE6AE806FDE143
:1011A800F00EF66E120EF76E000EF86E00EEEDF011
:1011B80010EE04F00900F5CFEEFFE550E150FAE13A
:1011C800000EF86E000159EF00F0E8CF44F02F0E42
:1011D800446406D03A0E445CD8B002D0D00E11D088
:1011E800400E446406D0470E445CD8B002D0C90E05
:1011F80008D0600E44640BD0670E445CD8B007D0AA
:10120800A90E4424426E436AFF0E432202D042686C
:10121800436812000001D6C043F00001D5C042F077
:1012280009D042C0D9FF43C0DAFF0001D7C0DFFFB1
:10123800424A432A00010001D907D8A0DA07000171
:10124800D929D8B4DA29D8B41200EBD7E8CF42F0BC
:1012580042507F0BD56E000ED76E000ED66EF294FC
:1012680042AE02D0F28A01D0F29AD58E1200F20E66
:101278001A16ABAC03D01A90ABB01A80ABB41A8470
:10128800ABB21A86AECF42F042501200E8CF42F01D
:1012980042C06FFF6E50E00B4218D8B41200FAD764
:1012A80042C044F043C045F045C0D7FF44C0D6FF14
:1012B800120042C0A9FFA69CA69EA68000F000F0DE
:1012C800A85012003CC03EF03DC03FF03FC0D7FFE1
:1012D8003EC0D6FF1200D6CF3EF0D7CF3FF03EC07B
:0C12E8003CF03FC03DF01200FFBBBBBF5C
:020000040030CA
:02000200011FDC
:0200060080FF79
:00000001FF
