:040000005CEF00F0C1
:10000800FACF05F0FBCF06F0E9CF07F0EACF08F00A
:10001800E1CF09F0E2CF0AF0D9CF0BF0DACF0CF03C
:10002800F3CF0DF0F4CF0EF0F6CF0FF0F7CF10F0BE
:10003800F8CF11F0F5CF12F09EB09E90F2A415D033
:10004800F2947AEC1CF015C013F016C014F0CB0E25
:100058001324156EF30E1420166E71EC1CF00101BA
:1000680001016D2B010101016A2B12C0F5FF11C0BE
:10007800F8FF10C0F7FF0FC0F6FF0EC0F4FF0DC069
:10008800F3FF0CC0DAFF0BC0D9FF0AC0E2FF09C0BA
:10009800E1FF08C0EAFF07C0E9FF06C0FBFF05C093
:1000A800FAFF1100FACF19F0FBCF1AF028ED19F07A
:1000B8000FEF1BF00001000E00010001B76F0001F7
:1000C8009C0E00010001B66F2CEF06F00001000144
:1000D800CB51250AD8B40DD097C0D9FF98C0DAFF04
:1000E8000001CBC0DFFF00010001974B982B2CEFDC
:1000F80006F0000E00010001B96F000E0001B86F94
:10010800000199C0F6FF00019AC0F7FF00019BC0EB
:10011800F8FF0800F5502E0AD8A463D000010001AA
:10012800B98D0001010E00019927000E00019A23E4
:10013800000E00019B23000E00010001C66F000E97
:100148000001C56F3ED0000199C0F6FF00019AC0BA
:10015800F7FF00019BC0F8FF0800F5500001A06FF1
:10016800A16BA0BFA107C5C060F0C6C061F0000EBA
:1001780000010001636F0A0E0001626F62EC1BF060
:100188000001A0510001000160270001A1510001F8
:1001980000016123D00E000100016025000100016B
:1001A800C56FFF0E0001000161210001C66F00014B
:1001B800010E00019927000E00019A23000E00018C
:1001C8009B23000199C0F6FF00019AC0F7FF0001C8
:1001D8009BC0F8FF0800F55008EC1CF0D8A010D020
:1001E800B2D7000E00010001C66F000E0001C56FF6
:1001F80000010001B98904D000010001B98527D0A8
:10020800000120EE99F0DFCFA0F0DE2ADECFA1F0CA
:10021800DDCFA2F0000EDE22DF22A0C0F6FFA1C0D3
:10022800F7FFA2C0F8FF08000001F5CFCBF00001EE
:10023800CB51000AD8B447EF06F0640AD8B407D007
:10024800020AD8B4D9D70F0AD8A42CEF06F0070EA3
:1002580000010001B915D8B4BAD300010001B9A949
:1002680007D0000E00010001C66F060E0001C56F21
:10027800B6C0D9FFB7C0DAFF0001DECFC7F0000172
:10028800DECFC8F00001DECFC9F00001DECFCAF032
:10029800040E00010001B627000E0001B72300017B
:1002A8000001CAAF16D0C7C060F0C8C061F0C9C0AD
:1002B80062F0CAC063F0CDEC1BF060C0C7F061C04B
:1002C800C8F062C0C9F063C0CAF0030E00010001A3
:1002D800B813000E00010001BF6F000E0001BE6FD1
:1002E800000120EEC7F0DE50DE10DE10DE10D8B4BC
:1002F800A8D000010001C9350001CA35820F0001EC
:100308000001BE6F00010001BF6BFF0EBF2300019B
:100318000001BE07D8A0BF07BEC060F0BFC061F033
:10032800000E00010001636F030E0001626F62ECB2
:100338001BF0000160C0BEF0000161C0BFF0BEC08C
:1003480064F0BFC065F0000E00010001676F0A0E7F
:100358000001666F2EEC16F0000164C0BEF00001CB
:1003680065C0BFF000010001BF51800AF36E800E26
:10037800F35C000ED8B4BE5DD8B005D00001000112
:10038800BE07D8A0BF0700010001BE5100084EEC0F
:1003980006F080C0BAF081C0BBF082C0BCF083C058
:1003A800BDF00001000E00010001816F0001BA0ECE
:1003B80000010001806FC7C082F0C8C083F0C9C0C7
:1003C80084F0CAC085F04CEC1AF0BAC060F0BBC02B
:1003D80061F0BCC062F0BDC063F0000E0001000116
:1003E800646F000E0001656F800E0001666F3F0E9E
:1003F8000001676FC9EC16F0D8B006D00001000103
:10040800BE07D8A0BF071DD0BAC060F0BBC061F05E
:10041800BCC062F0BDC063F0000E00010001646F53
:10042800000E0001656F200E0001666F410E00018D
:10043800676FC9EC16F0D8A004D000010001BE4BCC
:10044800BF2B00010001C651800AF36E800EF35CD9
:100458000D0ED8B4C55DD8B019D00001000E00014A
:1004680000018E6F0001C70E000100018D6F0001B1
:100478000001C55162EC0DF080C08FF081C090F092
:1004880082C091F083C092F07DEC1AF00001000167
:10049800BF51800AF36E800EF35C0A0ED8B4BE5DBD
:1004A800D8B02CD0000120EEC7F0DE50DE10DE10F0
:1004B800DE10D8B483D0C7C089F0C8C08AF0C9C0DC
:1004C8008BF0CAC08CF07FEC15F089C0A0F08AC010
:1004D800A1F08BC0A2F08CC0A3F00001A351A01121
:1004E800A111A211D8A46AD000010001BF51800A4D
:1004F800800F020ED8B4BE5DD8A060D0BAC060F03C
:10050800BBC061F0BCC062F0BDC063F05F0E00010B
:100518000001646F700E0001656F890E0001666F3F
:10052800400E0001676FC9EC16F0D8B003D0000187
:10053800F70E02D00001F80E0001BE27FF0E0001E1
:10054800BF2300010001BE514EEC06F080C0BAF096
:1005580081C0BBF082C0BCF083C0BDF0C7C060F0F2
:10056800C8C061F0C9C062F0CAC063F0BAC064F024
:10057800BBC065F0BCC066F0BDC067F0AFEC10F062
:1005880060C0AAF061C0ABF062C0ACF063C0ADF06F
:10059800AAC0C0F0ABC0C1F0ACC0C2F0ADC0C3F0DF
:1005A800000E00010001C76F000E0001C86F000EA9
:1005B8000001C96F000E0001CA6F37D0C7C089F0AB
:1005C800C8C08AF0C9C08BF0CAC08CF07FEC15F0A7
:1005D80089C0C0F08AC0C1F08BC0C2F08CC0C3F023
:1005E8000001000E000100017F6F0001C70E00012D
:1005F80000017E6FC0C06AF0C1C06BF0C2C06CF071
:10060800C3C06DF0AEEC1BF06AC080F06BC081F027
:100618006CC082F06DC083F01BEC1AF0000E000174
:100628000001BF6F000E0001BE6F0001A06F010E38
:1006380000010001CB6F0001A05100010001CB5166
:100648000A0AD8B424D000010001CB51040D710E60
:10065800F324F66E7E0EF420F76EF86A000EF82288
:100668000900F55000010001C05D0900F5500001C6
:10067800C1590900F5500001C2590900F55000019F
:10068800C359D8A004D000010001CB2BD6D7030E44
:1006980000010001B8150001A06F000E0001000163
:1006A800B9150001A16F0001A151A011D8B461D002
:1006B80097C0D9FF98C0DAFF2D0E56D0C0C060F0A1
:1006C800C1C061F0C2C062F0C3C063F000010001A4
:1006D800CB51040D710EF324F66E7E0EF420F76EE6
:1006E800F86A000EF82209000001F5CF64F009004D
:1006F8000001F5CF65F009000001F5CF66F00A00AA
:100708000001F5CF67F05FEC17F060C0AEF061C094
:10071800AFF062C0B0F063C0B1F0AEC06DF0AFC072
:100728006EF0B0C06FF0B1C070F00A0E00010001A9
:10073800716F000E0001726F000E0001736F000EE2
:100748000001746FC5EC18F06DC0AEF06EC0AFF06C
:100758006FC0B0F070C0B1F000010001AE51300FB1
:1007680097C0D9FF98C0DAFFDF6E00010001974BF0
:10077800982B00010001CB070001CB29D8B410D079
:100788009DD797C0D9FF98C0DAFF300EDF6E000101
:100798000001974B982B00010001BE07D8A0BF07A6
:1007A80000010001BF51800AF36E800EF35C010E58
:1007B800D8B4BE5DD8B0E5D700010001C651800AA3
:1007C800800F090ED8B4C55DD8A009D00001A06F6C
:1007D800080E00010001CB6F0001A05102D0C5C076
:1007E800CBF000010001CB5100010001C55F000EF4
:1007F8000001CBBFFF0E00010001C65B0001000134
:10080800CB51D8B40AD097C0D9FF98C0DAFF2E0EC2
:10081800DF6E00010001974B982B00010001CB51BE
:100828004EEC06F080C0A6F081C0A7F082C0A8F008
:1008380083C0A9F0C7C071F0C8C072F0C9C073F016
:10084800CAC074F0A6C06DF0A7C06EF0A8C06FF063
:10085800A9C070F0C6EC11F06DC089F06EC08AF0C6
:100868006FC08BF070C08CF07FEC15F089C0C0F0C1
:100878008AC0C1F08BC0C2F08CC0C3F08AD0C0C09F
:1008880060F0C1C061F0C2C062F0C3C063F0000193
:100898000001CB51040D710EF324F66E7E0EF42088
:1008A800F76EF86A000EF82209000001F5CF64F02F
:1008B80009000001F5CF65F009000001F5CF66F0E9
:1008C8000A000001F5CF67F05FEC17F060C0B2F0E6
:1008D80061C0B3F062C0B4F063C0B5F0B2C06DF0EF
:1008E800B3C06EF0B4C06FF0B5C070F00A0E00016E
:1008F8000001716F000E0001726F000E0001736F2E
:10090800000E0001746FC5EC18F06DC0B2F06EC037
:10091800B3F06FC0B4F070C0B5F000010001B2517F
:10092800300F97C0D9FF98C0DAFFDF6E00010001D1
:10093800974B982BC0C06DF0C1C06EF0C2C06FF06D
:10094800C3C070F000010001CB51040D710EF324F7
:10095800F66E7E0EF420F76EF86A000EF822090093
:100968000001F5CF71F009000001F5CF72F0090020
:100978000001F5CF73F00A000001F5CF74F0C5EC63
:1009880018F06DC0C0F06EC0C1F06FC0C2F070C08A
:10099800C3F000010001CB070001CB29D8B410D067
:1009A8006ED797C0D9FF98C0DAFF300EDF6E00010E
:1009B8000001974B982B00010001C507D8A0C60776
:1009C80000010001C651C511D8B442D1EAD7B6C05A
:1009D800D9FFB7C0DAFF0001DECFC0F00001DDCFDC
:1009E800C1F00001000E0001C1BFFF0E0001C26F7F
:1009F8000001C36F020E00010001B627000E0001BE
:100A0800B72300010001C351800A800F0BE1000EDB
:100A18000001C25D07E1000E0001C15D03E1000EA7
:100A28000001C05DD8B014D0030E00010001B81356
:100A380000010001C31F0001C21F0001C11F000106
:100A4800C06D000E0001C1230001C2230001C323B1
:100A580000010001C651C511D8A40CD00001000145
:100A6800C351C011C111C211D8A404D000010001A2
:100A7800C54BC62B0001A06F010E00010001CB6F12
:100A88000001A05100010001CB510A0AD8B424D0BA
:100A980000010001CB51040D710EF324F66E7E0E99
:100AA800F420F76EF86A000EF8220900F5500001EC
:100AB8000001C05D0900F5500001C1590900F55059
:100AC8000001C2590900F5500001C359D8A004D04B
:100AD80000010001CB2BD6D7800E00010001CBBF4F
:100AE8007F0EA06F00010001C55100010001CB5D20
:100AF80000010001C651800A0001A059D8B003D0F6
:100B0800C5C0CBF020D000010001C651800A000109
:100B1800A06F00010001CB5100010001C55D800EEE
:100B280000010001CBBF7F0E0001A059D8B00BD047
:100B380000010001CB5100010001C56F0001C66B27
:100B48000001C5BFC607030E00010001B81500016A
:100B5800A06F000E00010001B9150001A16F00018E
:100B6800A151A011D8B469D097C0D9FF98C0DAFFB5
:100B78002D0EDF6E5ED00001C5C0A0F00001C6C01A
:100B8800A1F00001D890A037A1370001D890A03774
:100B9800A137710E0001A025F66E7E0EA121F76E19
:100BA800F86A000EF82209000001F5CF64F0090088
:100BB8000001F5CF65F009000001F5CF66F00A00E5
:100BC8000001F5CF67F0C0C060F0C1C061F0C2C0DD
:100BD80062F0C3C063F05FEC17F060C06DF061C0F5
:100BE8006EF062C06FF063C070F00A0E0001000181
:100BF800716F000E0001726F000E0001736F000E1E
:100C08000001746FC5EC18F06DC0A2F06EC0A3F0BF
:100C18006FC0A4F070C0A5F00001A251300F000110
:100C28000001CB6F97C0D9FF98C0DAFF0001CBC095
:100C3800DFFF00010001974B982B00010001C50759
:100C4800D8A0C6070001C529D8B4C629D8A493D707
:100C5800000120EE99F0DFCFA0F0DE2ADECFA1F070
:100C6800DDCFA2F0000EDE22DF22A0C0F6FFA1C079
:100C7800F7FFA2C0F8FF08000001F5CFCBF0000194
:100C8800CB676AEF00F097C0D9FF98C0DAFF000E73
:100C9800DF6E1200E8CF88F00001000188AF86D12E
:100CA80000010001886D000100018851800A120FBF
:100CB800D8A0E6D0000E00010001676F0A0E0001FF
:100CC800666F000E00010001636F640E0001626F21
:100CD80000010001885100010001606F0001616B93
:100CE800000160BF6107E2EC17F0000160C064F02A
:100CF800000161C065F02EEC16F000010001000152
:100D0800D89064376537000100010001D890643736
:100D18006537240E000100016427000E00016523D9
:100D2800090E000100016425F66E7E0E00016521A2
:100D3800F76EF86A000EF82209000001F5CF71F08D
:100D480009000001F5CF72F009000001F5CF73F03A
:100D58000A000001F5CF74F0000E00010001676F72
:100D6800640E0001666F0001000188510001000156
:100D7800646F0001656B000164BF65072EEC16F017
:100D8800000100010001D8906437653700010001B7
:100D98000001D89064376537480E000100016427C8
:100DA800000E00016523090E000100016425F66E9E
:100DB8007E0E00016521F76EF86A000EF822090020
:100DC8000001F5CF6DF009000001F5CF6EF00900C4
:100DD8000001F5CF6FF00A000001F5CF70F0C6EC06
:100DE80011F06DC084F06EC085F06FC086F070C0E1
:100DF80087F084C06DF085C06EF086C06FF087C044
:100E080070F0000E00010001636F0A0E0001626FAE
:100E180000010001885100010001606F0001616B51
:100E2800000160BF6107E2EC17F00001000100015A
:100E3800D89060376137000100010001D890603711
:100E48006137090E000100016025F66E7E0E000173
:100E58006121F76EF86A000EF82209000001F5CF4B
:100E680071F009000001F5CF72F009000001F5CF1B
:100E780073F00A000001F5CF74F0C6EC11F00BD244
:100E8800000100018851800A750FD8A082D0000E99
:100E980000010001676F0A0E0001666F0001000182
:100EA800885100010001646F0001656B000164BF97
:100EB80065072EEC16F0000100010001D890643798
:100EC8006537000100010001D89064376537240EAA
:100ED800000100016427000E00016523090E0001CE
:100EE80000016425F66E7E0E00016521F76EF86A32
:100EF800000EF82209000001F5CF6DF0090000018D
:100F0800F5CF6EF009000001F5CF6FF00A0000017F
:100F1800F5CF70F0000E00010001636F0A0E0001AA
:100F2800626F00010001885100010001606F00013B
:100F3800616B000160BF6107E2EC17F0000100017E
:100F48000001D89060376137000100010001D89096
:100F580060376137090E000100016025F66E7E0ECC
:100F680000016121F76EF86A000EF82209000001FD
:100F7800F5CF71F009000001F5CF72F0090000010A
:100F8800F5CF73F00A000001F5CF74F0C6EC11F04C
:100F980082D1000100018851040D090EF324F66E78
:100FA8007E0EF420F76EF86A000E8AD10001000167
:100FB8008851800A120FD8A0E6D0000E0001000167
:100FC800676F0A0E0001666F000E00010001636F73
:100FD800640E0001626F00010001885100010001E8
:100FE800606F0001616B000160BF6107E2EC17F000
:100FF800000160C064F0000161C065F02EEC16F0DD
:10100800000100010001D890643765370001000134
:101018000001D89064376537240E00010001642769
:10102800000E000165233D0E000100016425F66EE7
:101038007E0E00016521F76EF86A000EF82209009D
:101048000001F5CF71F009000001F5CF72F0090039
:101058000001F5CF73F00A000001F5CF74F0000E1F
:1010680000010001676F640E0001666F0001000156
:10107800885100010001646F0001656B000164BFC5
:1010880065072EEC16F0000100010001D8906437C6
:101098006537000100010001D89064376537480EB4
:1010A800000100016427000E000165233D0E0001C8
:1010B80000016425F66E7E0E00016521F76EF86A60
:1010C800000EF82209000001F5CF6DF009000001BB
:1010D800F5CF6EF009000001F5CF6FF00A000001AE
:1010E800F5CF70F0C6EC11F06DC084F06EC085F0DD
:1010F8006FC086F070C087F084C06DF085C06EF058
:1011080086C06FF087C070F0000E00010001636FA9
:101118000A0E0001626F0001000188510001000100
:10112800606F0001616B000160BF6107E2EC17F0BE
:10113800000100010001D89060376137000100010B
:101148000001D890603761373D0E0001000160252D
:10115800F66E7E0E00016121F76EF86A000EF82225
:1011680009000001F5CF71F009000001F5CF72F018
:1011780009000001F5CF73F00A000001F5CF74F003
:10118800C6EC11F088D0000100018851800A750F63
:10119800D8A08AD0000E00010001676F0A0E000176
:1011A800666F00010001885100010001646F0001B1
:1011B800656B000164BF65072EEC16F000010001A5
:1011C8000001D89064376537000100010001D8900C
:1011D80064376537240E000100016427000E000102
:1011E80065233D0E000100016425F66E7E0E0001A8
:1011F8006521F76EF86A000EF82209000001F5CFA4
:101208006DF009000001F5CF6EF009000001F5CF7F
:101218006FF00A000001F5CF70F0000E0001000128
:10122800636F0A0E0001626F00010001885100011E
:101238000001606F0001616B000160BF6107E2ECB3
:1012480017F0000100010001D890603761370001F4
:1012580000010001D890603761373D0E00010001A0
:101268006025F66E7E0E00016121F76EF86A000EA9
:10127800F82209000001F5CF71F009000001F5CF4F
:1012880072F009000001F5CF73F00A000001F5CFF4
:1012980074F0C6EC11F06DC080F06EC081F06FC0C4
:1012A80082F070C083F01DD0000100018851040D48
:1012B8003D0EF324F66E7E0EF420F76EF86A000EEB
:1012C800F82209000001F5CF80F009000001F5CFF0
:1012D80081F009000001F5CF82F00A000001F5CF86
:1012E80083F01200000E2A6E0C0E296E3C0EE4EC00
:1012F80019F0FA0E00F0E82EFDD7000E00010001EB
:10130800626F7F0E00010001616FF80E000100019D
:10131800606FADEC19F0000E00010001626F7F0EE6
:1013280000010001616FBD0E00010001606FADECAE
:1013380019F0000E00010001626F7F0E000100012C
:10134800616F430E00010001606FADEC19F0000EF3
:1013580000010001626F7E0E00010001616F990EAD
:1013680000010001606FADEC19F0000E00010001F2
:10137800626F7E0E00010001616FD50E0001000151
:10138800606FADEC19F0000E00010001626F7F0E76
:1013980000010001616F6D0E00010001606FADEC8E
:1013A80019F0000E00010001626F7E0E00010001BD
:1013B800616FFA0E00010001606FADEC19F00001D9
:1013C800CC6F000E01010101CC6F0001CC5101016D
:1013D8000101CC51800A600FD8B055D1010101013B
:1013E800CC51010D0101480EF324D96E0101010E03
:1013F800F420DA6EDF500001CC6F0001CC510001FF
:10140800CE6FCD6B01010101CC51010D0101280EF8
:10141800F324D96E0101010EF420DA6EDF500001C9
:10142800CF6F0001CD510001CF25000100016A6F87
:10143800000E0001CFBFFF0E0001CE2100016B6F2F
:1014480075EC19F06AC0C8F16BC0C9F16CC0CAF17B
:101458006DC0CBF10101010E000100017E6F010199
:10146800C80E000100017D6F000E000100017F6FB2
:10147800000E0001806F7A0E0001816F440E00019A
:10148800826FAEEC1AF0000E00010001606F000ED2
:101498000001616F000E0001626F000E0001636FB2
:1014A800C8C164F0C9C165F0CAC166F0CBC167F0B4
:1014B800C9EC16F0D8A00DD0000E01010101C86FCB
:1014C800000E0101C96F000E0101CA6F000E010173
:1014D800CB6F000E00010001626F7F0E000100015A
:1014E800616FD00E00010001606FADEC19F00101D1
:1014F800010E00010001986F0101780E0001000142
:10150800976F000E000100019B6F7F0E0001000124
:101518009A6FFB0E00010001996F010E0101010194
:10152800CC25000100019C6FE86AD8B0E82A0101C7
:10153800CCBFE80600019D6F5EEC00F0200E0001B4
:101548000001626F0101010E00010001616F0101DC
:10155800780E00010001606FADEC19F0000E00017B
:101568000001626F7F0E00010001616FF20E000141
:101578000001606FADEC19F00101010E00010001DE
:10158800986F0101780E00010001976F000E0001AD
:1015980000019B6F7F0E000100019A6FEB0E0001A6
:1015A8000001996FC8C19CF0C9C19DF0CAC19EF0E5
:1015B800CBC19FF05EEC00F0200E00010001626FCD
:1015C8000101010E00010001616F0101780E0001A7
:1015D8000001606FADEC19F0010E0001CC6FCD6B0E
:1015E800CE6BCF6B01010101CC510001E82A05D077
:1015F800D890CC37CD37CE37CF37E82EF9D7010181
:10160800010100510001CC150001D06F0101010159
:1016180001510001CD150001D16F010101010251F5
:101628000001CE150001D26F010101010351000133
:10163800CF150001D36F0001D351D011D111D211B0
:10164800D8B40FD0000E00010001626F7F0E0001B8
:101658000001616FE20E00010001606FADEC19F04E
:101668000ED0000E00010001626F7F0E0001000124
:10167800616FD90E00010001606FADEC19F0010136
:101688000101CC2BA4D6000E00010001626F7F0E71
:1016980000010001616F950E00010001606FADEC63
:1016A80019F0000E00010001626F7F0E00010001B9
:1016B800616FF70E00010001606FADEC19F0000ECC
:1016C8002A6E680E296E2C0EE4EC19F0FA0E00F062
:1016D800E82EFDD71200000E956E8368000E8C6E02
:1016E800DFEC1AF0F194950E35EC1CF0F30E2A6E2F
:1016F800CB0E296E5FEC1CF0F28E000E2A6E680E7F
:10170800296E2C0EE4EC19F00101CD6F000E0101D9
:1017180001016E6F0101CD510101CD6F000E010174
:1017280001016F6F0101CD510101CD6F000E010163
:1017380001016C6F0101CD510101CD6F000E366EB4
:101748000101CD51D180ABA20AD0AB98AB88010181
:10175800CD6F000E010101016C6F0101CD519EBAE0
:1017680002D0ABA412D146EC1CF0010101016B6F51
:101778000101CD6F000E010101016D6F0101CD5115
:10178800010101016B513E0AD8A417D00101CD6FA8
:10179800000E010101016C6F0101CD510101010130
:1017A8006C51010D0101700EF324D96E0101010E77
:1017B800F420DA6E300EDF6EE5D0010101016C51C4
:1017C800D8B4E3D0010101016B67CDD0FF0E010150
:1017D800CD6FFF0ECE6F010101016C510101CF6F7A
:1017E800D06B0101CD510101CF270101CE5101017B
:1017F800D0230101700E0101CF25D96E0101010E20
:101808000101D021DA6E0D0EDF62ADD001010101B8
:1018180072512D0AD8A4A7D00101CD6F000E010185
:1018280001016C6F0101CD510101010E00010001A0
:10183800616F0101700E00010001606F57EC18F034
:10184800000160C068F1000161C069F10101010196
:1018580071514F0AD8A426D0010E0101CD6FCE6B6D
:10186800CF6BD06B36500101E82A05D0D890CD3720
:10187800CE37CF37D037E82EF9D70101CD51010146
:10188800010100130101CE51010101010113010100
:10189800CF510101010102130101D05101010101E0
:1018A80003132AD0010E0101CD6FCE6BCF6BD06B25
:1018B80036500101E82A05D0D890CD37CE37CF373A
:1018C800D037E82EF9D70101CD1FCE1FCF1FD01F6B
:1018D8000101CD510101010100170101CE510101A2
:1018E800010101170101CF51010101010217010195
:1018F800D0510101010103173650010D0101480EB5
:10190800F324D96E0101010EF420DA6E010173C1CE
:10191800DFFF3650010D0101280EF324D96E0101B5
:10192800010EF420DA6E010174C1DFFF23EC1CF014
:101938000101010E00010001616F0101700E00013B
:101948000001606F000E00010001636F000E0001CE
:10195800626F000E00010001656F080E0001646FE0
:10196800ECEC1BF012D0010101016C51010D0101D9
:10197800700EF324D96E0101010EF420DA6E010114
:101988006BC1DFFF010101016C2B030E0101010195
:101998006D5DD8B034D0010E0101CD6FCE6BCF6B29
:1019A800D06B36500101E82A05D0D890CD37CE3714
:1019B800CF37D037E82EF9D701010101D551010100
:1019C800CD150101D16F01010101D6510101CE15DB
:1019D8000101D26F01010101D7510101CF150101A8
:1019E800D36F01010101D8510101D0150101D46F54
:1019F8000101D451D111D211D311D8A44CD03650F1
:101A0800010D0101280EF324D96E0101010EF42005
:101A1800DA6EFF0EDF6E3650010D0101480EF32419
:101A2800D96E0101010EF420DA6EFF0EDF6E010E91
:101A38000101CD6FCE6BCF6BD06B36500101E82A18
:101A480005D0D890CD37CE37CF37D037E82EF9D755
:101A58000101CD1FCE1FCF1FD01F0101CD510101A4
:101A6800010100170101CE51010101010117010116
:101A7800CF510101010102170101D05101010101FA
:101A8800031723EC1CF00101CD6F000E01010101C9
:101A98006D6F0101CD51010101016A51800A6C0F7E
:101AA800D8A00AD00101CD6F000E010101016A6FB3
:101AB8000101CD5176EC09F0040045D6E8CF8CF051
:101AC8006D0E000100018C65F9D0000E00010001C7
:101AD800676F0A0E0001666F000E00010001636F58
:101AE800640E0001626F000100018CC060F000010B
:101AF8000001616BE2EC17F0000160C064F00001C6
:101B080061C065F02EEC16F0000100010001D890CC
:101B180064376537000100010001D89064376537E4
:101B2800240E000100016427000E00016523090E40
:101B3800000100016425F66E7E0E00016521F76E36
:101B4800F86A000EF82209000001F5CF71F00900CB
:101B58000001F5CF72F009000001F5CF73F00A001B
:101B68000001F5CF74F0000E00010001676F640EEC
:101B78000001666F000100018CC064F000010001E3
:101B8800656B2EEC16F0000100010001D890643757
:101B98006537000100010001D89064376537480EA9
:101BA800000100016427000E00016523090E0001F1
:101BB80000016425F66E7E0E00016521F76EF86A55
:101BC800000EF82209000001F5CF6DF009000001B0
:101BD800F5CF6EF009000001F5CF6FF00A000001A3
:101BE800F5CF70F0C6EC11F06DC088F06EC089F0CA
:101BF8006FC08AF070C08BF0000E00010001636FA7
:101C08000A0E0001626F000100018CC060F0000143
:101C18000001616BE2EC17F0000100010001D890AF
:101C280060376137000100010001D89060376137E3
:101C3800090E000100016025F66E7E0E000161218B
:101C4800F76EF86A000EF82209000001F5CF71F06E
:101C580009000001F5CF72F009000001F5CF73F01B
:101C68000A000001F5CF74F088C06DF089C06EF0ED
:101C78008AC06FF08BC070F0C6EC11F06DC084F0B4
:101C88006EC085F06FC086F070C087F084C06DF0BC
:101C980085C06EF086C06FF087C070F0000E00013E
:101CA8000001716F000E0001726F000E0001736F6A
:101CB8003F0E0001746FC6EC11F0CAD00A0E000185
:101CC80000018C6599D0000E00010001636F0A0EB7
:101CD8000001626F000100018CC060F0000100018A
:101CE800616BE2EC17F0000100010001D890603749
:101CF8006137000100010001D89060376137090E93
:101D0800000100016025F66E7E0E00016121F76E6C
:101D1800F86A000EF82209000001F5CF71F00900F9
:101D28000001F5CF72F009000001F5CF73F00A0049
:101D38000001F5CF74F0000E00010001676F0A0E74
:101D48000001666F000100018CC064F00001000111
:101D5800656B2EEC16F0000100010001D890643785
:101D68006537000100010001D89064376537240EFB
:101D7800000100016427000E00016523090E00011F
:101D880000016425F66E7E0E00016521F76EF86A83
:101D9800000EF82209000001F5CF6DF009000001DE
:101DA800F5CF6EF009000001F5CF6FF00A000001D1
:101DB800F5CF70F0C6EC11F06DC088F06EC089F0F8
:101DC8006FC08AF070C08BF088C06DF089C06EF06B
:101DD8008AC06FF08BC070F0000E00010001716FB7
:101DE800000E0001726F000E0001736F3F0E0001BC
:101DF800746FC6EC11F02CD0000100018C51040D59
:101E0800090EF324F66E7E0EF420F76EF86A000EC3
:101E1800F82209000001F5CF6DF009000001F5CFA7
:101E28006EF009000001F5CF6FF00A000001F5CF50
:101E380070F0000E00010001716F000E0001726F5A
:101E4800000E0001736F3F0E0001746FC6EC11F0B5
:101E58006DC080F06EC081F06FC082F070C083F0FA
:101E6800120000016AC072F000016BC073F000013B
:101E78006CC074F000016DC075F0180E06D000013A
:101E8800D8907533743373337233E82EF8D7000162
:101E980072512B6E00016EC072F000016FC073F0BA
:101EA800000170C074F0000171C075F0180E06D002
:101EB8000001D8907533743373337233E82EF8D732
:101EC800000172512A6E2B50D8B40ED02A502B5CC8
:101ED800D8B013D02B5000082A240001726F210EAD
:101EE8000001725DD8A009D06EC06AF06FC06BF0B7
:101EF80070C06CF071C06DF02DD12A50D8B40ED0DE
:101F08002B502A5CD8B013D02A5000082B2400018B
:101F1800726F210E0001725DD8A009D06AC06AF004
:101F28006BC06BF06CC06CF06DC06DF013D100012C
:101F3800726F060E296E00017251000100016DBF1B
:101F4800298E0001000171BF298C000100016C8FEE
:101F5800FF0E000100016A17FF0E00016B17FF0E4C
:101F680000016C17000E00016D1700010001708F51
:101F7800FF0E000100016E17FF0E00016F17FF0E24
:101F880000017017000E000171172A502B5CD8B0A1
:101F980027D00001D89000016E3700016F3700018B
:101FA8007037000171372A062A502B18D8B414D07C
:101FB800290629C072F0070E00017217D8B40CD098
:101FC800E8D70001D89000016D3300016C3300019F
:101FD8006B3300016A332B2A2A502B62F2D72AD09E
:101FE8002B502A5CD8B026D00001D89000016A375F
:101FF80000016B3700016C3700016D372B062A5042
:102008002B18D8B414D0290629C072F0070E000185
:102018007217D8B40CD0E8D70001D89000017133FA
:102028000001703300016F3300016E332A2A2A50F1
:102038002B62F2D729AE1AD0FF0E000100016A1BED
:10204800FF0E00016B1BFF0E00016C1BFF0E000151
:102058006D1B010E000100016A27000E00016B23B1
:10206800000E00016C23000E00016D2329AC1AD06C
:10207800FF0E000100016E1BFF0E00016F1BFF0E1B
:102088000001701BFF0E0001711B010E0001000111
:102098006E27000E00016F23000E00017023000E52
:1020A800000171230001726F000E296E0001725148
:1020B800000100016A51000100016E2700010001C2
:1020C8006B51000100016F23000100016C510001F8
:1020D80000017023000100016D510001000171230E
:1020E8000001000171AF20D0FF0E000100016E1B3E
:1020F800FF0E00016F1BFF0E0001701BFF0E000199
:10210800711B010E000100016E27000E00016F23F4
:10211800000E00017023000E000171230001726F90
:10212800010E296E000172516EC060F06FC061F03F
:1021380070C062F071C063F02BC064F029C065F014
:10214800A6EC14F060C06AF061C06BF062C06CF07D
:1021580063C06DF01200000160C068F0000161C04A
:1021680069F0000162C06AF0000163C06BF0180EEC
:1021780006D00001D8906B336A3369336833E82E90
:10218800F8D70001685100010001716F0001716703
:1021980001D0D0D0000164C068F0000165C069F0CA
:1021A800000166C06AF0000167C06BF0180E06D027
:1021B8000001D8906B336A3369336833E82EF8D757
:1021C8000001685100010001706F0001706701D0C3
:1021D800B1D000010001628FFF0E000100016017FD
:1021E800FF0E00016117FF0E00016217000E0001CB
:1021F800631700010001668FFF0E000100016417DC
:10220800FF0E00016517FF0E00016617000E0001A2
:102218006717000E000100016C6F000E00016D6F62
:10222800000E00016E6F000E00016F6F7F0E00013F
:102238000001715F000100017051A00F0001000151
:10224800715F0001686F200E00010001706F0001CE
:1022580068510001D89000016C3700016D3700010A
:102268006E3700016F370001000164510001000161
:10227800605D000100016551000100016159000124
:102288000001665100010001625900010001675117
:10229800000100016359D8A01BD00001000164515E
:1022A80000010001605F00010001655100010001AB
:1022B800615B00010001665100010001625B0001E1
:1022C8000001675100010001635B000100016C819E
:1022D8000001D890000160370001613700016237C2
:1022E8000001633700010001702FB3D7000100011E
:1022F80071AF1BD0000100017151800A0001686FA5
:10230800E10E800A0001685DD8A014D00001D890C1
:1023180000016F3300016E3300016D3300016C332F
:1023280000010001713FF2D724D01F0E0001000107
:1023380071651BD0000E00010001606F000E0001E6
:10234800616F000E0001626F000E0001636F19D00B
:102358000001D89000016C3700016D3700016E371D
:1023680000016F370001000171070001000171676A
:10237800EFD76CC060F06DC061F06EC062F06FC0E6
:1023880063F0120000016DC075F000016EC076F0B8
:1023980000016FC077F0000170C078F0180E06D009
:1023A8000001D8907833773376337533E82EF8D731
:1023B8000001755100010001796F0001796701D0B2
:1023C8001ED0000171C075F0000172C076F00001E6
:1023D80073C077F0000174C078F0180E06D00001C1
:1023E800D8907833773376337533E82EF8D70001F1
:1023F8007551000100017F6F00017F670ED0000E4C
:10240800000100016D6F000E00016E6F000E0001EB
:102418006F6F000E0001706FC1D0000100017F5185
:102428007B0F00010001792770C07FF000010001D7
:102438007451000100017F1B800E000100017F170D
:10244800000100016F8F00010001738FFF0E000172
:1024580000017117FF0E00017217FF0E00017317BC
:10246800000E00017417000E000100017A6F000EC3
:1024780000017B6F000E00017C6F000E00017D6F74
:102488000001756F070E000100017E6F0001755194
:10249800000100016DA118D0000100017151000177
:1024A80000017A27000100017251000100017B231D
:1024B800000100017351000100017C2300010001AB
:1024C8007451000100017D230001D8900001703390
:1024D80000016F3300016E3300016D330001D890A5
:1024E800000171370001723700017337000174373A
:1024F800000100017E2FCCD70001756F110E00017D
:1025080000017E6F00017551000100016DA118D016
:10251800000100017151000100017A27000100014A
:102528007251000100017B23000100017351000179
:1025380000017C23000100017451000100017D238A
:102548000001D8900001703300016F3300016E3331
:1025580000016D330001D89000017D3300017C3308
:1025680000017B3300017A33000100017E2FCCD7B4
:102578007AC060F07BC061F07CC062F07DC063F01F
:1025880079C064F07FC065F0A6EC14F060C06DF00F
:1025980061C06EF062C06FF063C070F0120000019D
:1025A8006AC072F000016BC073F000016CC074F077
:1025B80000016DC075F0180E06D00001D890753373
:1025C800743373337233E82EF8D700017251000167
:1025D80000017B6F00017B6701D01ED000016EC037
:1025E80072F000016FC073F0000170C074F0000158
:1025F80071C075F0180E06D00001D8907533743389
:1026080073337233E82EF8D70001725100010001CC
:102618007C6F00017C670ED0000E000100016A6F1C
:10262800000E00016B6F000E00016C6F000E0001C0
:102638006D6F9ED0000100017C51890F00010001DF
:102648007B5F6DC07CF00001000171510001000149
:102658007C1B800E000100017C17000100016C8FBB
:10266800FF0E000100016A17FF0E00016B17FF0E35
:1026780000016C17000E00016D1700010001708F3A
:10268800FF0E000100016E17FF0E00016F17FF0E0D
:1026980000017017000E000171170001726F200E03
:1026A800000100017A6F000172510001D890000109
:1026B8007637000177370001783700017937000154
:1026C80000016E51000100016A5D000100016F51B7
:1026D800000100016B590001000170510001000167
:1026E8006C59000100017151000100016D59D8A019
:1026F8001BD0000100016E51000100016A5F00015A
:1027080000016F51000100016B5B00010001705175
:10271800000100016C5B0001000171510001000122
:102728006D5B0001000176810001D89000016A37D5
:1027380000016B3700016C3700016D3700010001A3
:102748007A2FB3D776C060F077C061F078C062F0B6
:1027580079C063F07BC064F07CC065F0A6EC14F02F
:1027680060C06AF061C06BF062C06CF063C06DF06D
:102778001200000162C029F02A6A2B6A0001613543
:10278800293601E32A802950000100016D6F0001FC
:102798006D6701D0AFD0000166C029F02A6A2B6AA4
:1027A80000016535293601E32A802950000100011E
:1027B8006C6F00016C6701D09DD000010001618F32
:1027C800FF0E000100016017FF0E000100016117F4
:1027D800000E00010001621700010001658FFF0E65
:1027E800000100016417FF0E000100016517000ECB
:1027F800000100016617000E00010001686F000E5D
:102808000001696F000E00016A6F000E00016B6F16
:102818007F0E000100016D5F000100016C51980FEF
:10282800000100016D5F296E180E000100016C6F38
:1028380029500001D890000168370001693700016C
:102848006A3700016B370001000164510001000183
:10285800605D00010001655100010001615900013E
:1028680000016651000100016259D8A015D000018D
:102878000001645100010001605F00010001655121
:1028880000010001615B00010001665100010001C7
:10289800625B0001000168810001D8900001603787
:1028A8000001613700016237000100016C2FC1D7B8
:1028B800000100016DAF19D0000100016D51800ABF
:1028C800296EE90E800A295CD8A014D00001D8909E
:1028D80000016B3300016A3300016933000168337A
:1028E800000100016D3FF2D724D0170E000100014E
:1028F8006D651BD0000E00010001606F000E000125
:10290800616F000E0001626F000E0001636F19D045
:102918000001D890000168370001693700016A3763
:1029280000016B37000100016D07000100016D67B0
:10293800EFD768C060F069C061F06AC062F06BC030
:1029480063F01200000100016451D8B408D00001FE
:1029580000016351601161116211D8A41BD0000EEF
:1029680000010001606F000E0001616F000E0001A0
:10297800626F000E0001636FBDD000010001642B7F
:102988000001D89000016333000162330001613314
:1029980000016033000E0001000160150001666F40
:1029A800000E0001000161150001676F000E0001B3
:1029B800000162150001686FFE0E00010001631539
:1029C8000001696F00016951661167116811D8B477
:1029D8001BD0D3D700010001642B010E00010001B8
:1029E8006027000E00016123000E00016223000E23
:1029F800000163230001D8900001633300016233B2
:102A08000001613300016033000E00010001601510
:102A18000001666F000E0001000161150001676F7B
:102A2800000E0001000162150001686FFF0E000131
:102A3800000163150001696F000169516611671192
:102A48006811D8B40ED0C6D7000100016407000190
:102A5800D89000016037000161370001623700013A
:102A680063370001000162AFEFD70001000164B1D4
:102A78000DD0FF0E000100016017FF0E0001611765
:102A88007F0E00016217FF0E000163170001D89046
:102A98006433000164C066F00001676B686B696BA2
:102AA80066C069F00001686B676B666B0001665170
:102AB800000100016013000167510001000161136A
:102AC8000001685100010001621300016951000111
:102AD80000016313000100016551D8B403D000015F
:102AE8000001638F60C060F061C061F062C062F095
:102AF80063C063F01200000189C08DF000018AC034
:102B08008EF000018BC08FF000018CC090F0180E81
:102B180006D00001D89090338F338E338D33E82E52
:102B2800F8D700018D5100010001926F00019267F2
:102B380001D053D0000189C08DF000018AC08EF009
:102B480000018BC08FF000018CC090F0200E06D0E1
:102B58000001D89090338F338E338D33E82EF8D719
:102B680000018D5100010001916F000100018B8F60
:102B7800FF0E000100018917FF0E00018A17FF0EE2
:102B880000018B17000E00018C17960E0001000142
:102B9800925F0001000192AF1BD000010001925129
:102BA800800A00018D6FE90E800A00018D5DD8A0B2
:102BB80014D00001D89000018C3300018B33000140
:102BC8008A330001893300010001923FF2D724D0F3
:102BD8001F0E0001000192651BD0000E00010001CC
:102BE800896F000E00018A6F000E00018B6F000EC6
:102BF80000018C6F2ED00001D890000189370001A8
:102C08008A3700018B3700018C37000100019207D9
:102C1800000100019267EFD7000100019151D8B47B
:102C280010D0000100018C1F00018B1F00018A1FBA
:102C38000001896D000E00018A2300018B23000129
:102C48008C2389C089F08AC08AF08BC08BF08CC035
:102C58008CF012000001686F000E000100016A6F1D
:102C680000016851000100016751800AF36E800E6F
:102C7800F35C000ED8B4665DD8B00FD00001000137
:102C8800666D0001671FD8B0672B0001686F010EE1
:102C9800000100016A6F00016851000100016551DF
:102CA800800AF36E800EF35C000ED8B4645DD8B071
:102CB8000BD000010001646D0001651FD8B0652BC1
:102CC800010E000100016A1B000E000100016C6F7B
:102CD800000E00016B6F0001000167516611D8B446
:102CE80043D00001686F010E00010001696F000107
:102CF800685109D0000100010001D8906637673794
:102D080000010001692B0001000167AFF3D7000142
:102D180000010001D8906B376C3700010001665143
:102D280000010001645D000100016751000100011C
:102D38006559D8A00FD000010001665100010001BB
:102D4800645F00010001675100010001655B00013B
:102D580000016B81000100010001D89067336633E0
:102D680000010001692FD3D7000100016A51D8B4CE
:102D780007D0000100016B6D00016C1FD8B06C2BEF
:102D88006BC064F06CC065F012000001000163AF15
:102D98002BD0000160C068F0000161C069F000013B
:102DA80062C06AF0000163C06BF00001681F691F10
:102DB8006A1F6B1F682B000E69236A236B23000EA2
:102DC8000001682500010001606F000E0001692103
:102DD8000001616F000E00016A210001626F800E20
:102DE80000016B210001636F0001000167AF2BD068
:102DF800000164C068F0000165C069F0000166C0A8
:102E08006AF0000167C06BF00001681F691F6A1F44
:102E18006B1F682B000E69236A236B23000E0001C9
:102E2800682500010001646F000E0001692100019E
:102E3800656F000E00016A210001666F800E0001B7
:102E48006B210001676F000E00010001601B000E7E
:102E58000001611B000E0001621B800E0001631B54
:102E6800000E00010001641B000E0001651B000E2E
:102E78000001661B800E0001671B00010001645100
:102E880000010001605D00010001655100010001C1
:102E980061590001000166510001000162590001F9
:102EA80000016751000100016359D8B002D0D890E1
:102EB80001D0D8801200000E00010001686F000EDA
:102EC8000001696F000E00016A6F000E00016B6F50
:102ED800000100016751641165116611D8B465D00D
:102EE800296E010E000100016C6F29500DD0000100
:102EF800D89000016437000165370001663700018A
:102F08006737000100016C2B0001000167AFEFD7A4
:102F18000001D890000168370001693700016A375D
:102F280000016B3700010001645100010001605D80
:102F38000001000165510001000161590001000113
:102F4800665100010001625900010001675100014A
:102F580000016359D8A01BD0000100016451000191
:102F68000001605F00010001655100010001615B23
:102F780000010001665100010001625B00010001CF
:102F8800675100010001635B0001000168810001D5
:102F9800D8900001673300016633000165330001F2
:102FA8006433000100016C2FB3D768C060F069C0BA
:102FB80061F06AC062F06BC063F01200296E000E07
:102FC8002B6E2950000100016151800AF36E800EBA
:102FD800F35C000ED8B4605DD8B00BD000010001DE
:102FE800606D0001611FD8B0612B296E010E2B6E38
:102FF8002950000100016351800AF36E800EF35CD2
:10300800000ED8B4625DD8B007D000010001626D2F
:103018000001631FD8B0632B0001000163516211E6
:10302800D8B432D0296E010E2A6E295007D000017B
:1030380000010001D890623763372A2A0001000195
:1030480063AFF5D700010001625100010001605D26
:10305800000100016351000100016159D8A00CD0A2
:1030680000010001625100010001605F00010001E0
:10307800635100010001615B000100010001D8906B
:10308800633362332A2EDED72B50D8B407D0000121
:103098000001606D0001611FD8B0612B60C060F055
:1030A80061C061F01200000E00010001696F000E9E
:1030B8000001686F000E00010001676F000E00013B
:1030C800666F3FD0000100016651000100016025D4
:1030D800D96E000100016751000100016121DA6E1B
:1030E800DF5089EC1BF029C064F02AC065F00001AC
:1030F80000016429D8B46529D8B43ED0000168C05D
:1031080062F0000169C063F00001623B633BF00EAE
:10311800631762510F0B6313F00E62170001000171
:1031280064510001622500010001686F000100017F
:103138006551000163210001696F00010001664BC0
:10314800672B000100016651000100016025D96E5E
:10315800000100016751000100016121DA6EDF50B2
:10316800D8B40AD0000100016751800A800F080E08
:10317800D8B4665DD8A0A6D768C060F069C061F011
:103188001200000100017451711172117311D8B449
:1031980052D02A6E010E2B6E2A500BD00001D89007
:1031A800000171370001723700017337000174376D
:1031B8002B2A0001000174AFF1D700010001715101
:1031C800000100016D5D0001000172510001000164
:1031D8006E59000100017351000100016F5900018F
:1031E80000017451000100017059D8A018D00001E5
:1031F80000017151000100016D5F00010001725171
:10320800000100016E5B0001000173510001000123
:103218006F5B00010001745100010001705B000147
:10322800D890000174330001733300017233000138
:1032380071332B2EC2D76DC06DF06EC06EF06FC0AB
:103248006FF070C070F012000600E9CF1BF0EACFF3
:103258001CF0E1CF1DF0E2CF1EF0D9CF1FF0DACF7E
:1032680020F0F3CF21F0F4CF22F0F6CF23F0F7CF00
:1032780024F0F8CF25F0F5CF26F0F2A415D0F2947B
:103288007AEC1CF015C027F016C028F0CB0E2724C6
:10329800156EF30E2820166E71EC1CF00101010169
:1032A8006D2B010101016A2B26C0F5FF25C0F8FF2F
:1032B80024C0F7FF23C0F6FF22C0F4FF21C0F3FFAC
:1032C80020C0DAFF1FC0D9FF1EC0E2FF1DC0E1FF0A
:1032D8001CC0EAFF1BC0E9FF1AC0FBFF19C0FAFFB8
:1032E8001100296E000E2A6E2950000100016B5151
:1032F800800AF36E800EF35C000ED8B46A5DD8B015
:1033080008D0000100016A6D00016B1FD8B06B2B5B
:103318002A2A000100016AC060F0000100016BC0A8
:1033280061F000010001626B0001636B296E960E6B
:1033380000010001646F29502AC065F0A6EC14F062
:1033480060C06AF061C06BF062C06CF063C06DF081
:103358001200ACA2FED7000160C0F6FF000161C0F8
:10336800F7FF000162C0F8FFF8BA03D00800F55073
:1033780005D0F6CFE9FFF7CFEAFFEF5055EC1CF088
:10338800000160C0F6FF000161C0F7FF000162C0E4
:10339800F8FF010E000100016027000E0001612303
:1033A80000016223F8BA03D00800F55005D0F6CF23
:1033B800E9FFF7CFEAFFEF500009D8B41200C9D7E8
:1033C800E8CF2BF0000EAC6E000EAB6E2BB0AC88C5
:1033D8002BA202D0AC8CAB8C2BB4AC8E2BA602D01B
:1033E800AB8801D0AB8A2BB8AC849E982BBAAB863D
:1033F8002BAC02D09D8A01D09D9A9E9A2BAE02D00A
:103408009D8801D09D9829C0AFFF2AC060F060C098
:1034180061F00001626B00016151B06EAC8AAB8E45
:10342800949C948EACB8ACBE01D0948C12007EC033
:10343800D9FF7FC0DAFF0001DECF76F00001DECFD2
:1034480077F00001DECF78F00001DECF79F080C0A0
:103458007AF081C07BF082C07CF083C07DF03AECCA
:103468001BF076C084F077C085F078C086F079C00C
:1034780087F07EC0D9FF7FC0DAFF84C0DEFF85C039
:10348800DEFF86C0DEFF87C0DDFFD906D906120041
:1034980080C0D9FF81C0DAFF0001DECF6DF00001E6
:1034A800DECF6EF00001DECF6FF00001DECF70F0EE
:1034B80082C071F083C072F084C073F085C074F06C
:1034C800C6EC11F06DC086F06EC087F06FC088F052
:1034D80070C089F080C0D9FF81C0DAFF86C0DEFFE6
:1034E80087C0DEFF88C0DEFF89C0DDFFD906D906A8
:1034F80012008DC0D9FF8EC0DAFF0001DECF6AF05E
:103508000001DECF6BF00001DECF6CF00001DECFF2
:103518006DF08FC06EF090C06FF091C070F092C0E7
:1035280071F035EC0FF06AC093F06BC094F06CC08A
:1035380095F06DC096F08DC0D9FF8EC0DAFF93C0AC
:10354800DEFF94C0DEFF95C0DEFF96C0DDFFD90622
:10355800D90612007DC0D9FF7EC0DAFF0001DECF98
:103568006AF00001DECF6BF00001DECF6CF00001E5
:10357800DECF6DF07FC06EF080C06FF081C070F05C
:1035880082C071F0D3EC12F06AC083F06BC084F093
:103598006CC085F06DC086F07DC0D9FF7EC0DAFFB3
:1035A80083C0DEFF84C0DEFF85C0DEFF86C0DDFF8E
:1035B800D906D9061200000E00010001616F080E3D
:1035C8000001606F2B6E000E00010001626F2B502E
:1035D8001CD0000100016251010D2C0EF324D96E9C
:1035E800000EF420DA6E00010001625100010001B2
:1035F8006025296E00010001000E61212A6E68EC29
:103608001CF0DF6E00010001622B070E00010001B3
:103618006265DFD7120002EE00F0A20EEE6AE8063D
:10362800FDE101EE00F0780EEE6AE806FDE100EE3D
:10363800D4F0280EEE6AE806FDE100EE2CF00C0E40
:10364800EE6AE806FDE1060EF66E390EF76E000E1C
:10365800F86E01EED5F010EE04F00900F5CFEEFF9C
:10366800E550E150FAE100016FEF0BF0000E0001A8
:1036780000017A1B000E00017B1B000E00017C1B61
:10368800800E00017D1B76C06AF077C06BF078C0B1
:103698006CF079C06DF07AC06EF07BC06FF07CC0C2
:1036A80070F07DC071F035EC0FF06AC076F06BC039
:1036B80077F06CC078F06DC079F01200000E2A6EB9
:1036C800000E296E0001000160A108D00001000170
:1036D800625129260001000163512A2200010001DC
:1036E8000001D89062376337000100010001D890CB
:1036F800613360330001000161516011D8A4E2D741
:1037080029C060F02AC061F01200E8CF2BF02F0E1C
:103718002B6406D03A0E2B5CD8B002D0D00E11D054
:10372800400E2B6406D0470E2B5CD8B002D0C90ED1
:1037380008D0600E2B640BD0670E2B5CD8B007D076
:10374800A90E2B24296E2A6AFF0E2A2202D0296884
:103758002A6812006AC060F06BC061F06CC062F049
:103768006DC063F0296E960E00010001646F295048
:103778002A6E000E00010001656F2A50A6EC14F0B5
:1037880060C06AF061C06BF062C06CF063C06DF03D
:103798001200000120EE60F0DE50DE10DE10DE10B8
:1037A800D8B40DD0000E00010001601B000E00010E
:1037B800611B000E0001621B800E0001631B60C0CC
:1037C80060F061C061F062C062F063C063F0120033
:1037D800000161C02AF0000160C029F009D029C0A9
:1037E800D9FF2AC0DAFF000162C0DFFF294A2A2A6E
:1037F800000100016407D8A0650700016429D8B456
:103808006529D8B41200EBD7E8CF2BF0296E000E4B
:103818002A6E29502B50800A296E3A0E800A295C9C
:10382800D8B009D02B50800A500FD8A004D0296EE8
:10383800010E2A6E29502AC029F02930120000C131
:1038480060F001C161F002C162F003C163F0362A81
:10385800296E000E010101016C6F295036C08CFFE2
:103868001200E8CF29F029507F0BD56E000ED76ED5
:10387800000ED66EF29429AE02D0F28A01D0F29AE6
:10388800D58E1200F20E3516ABAC03D03590ABB026
:103898003580ABB43584ABB23586AECF29F029502C
:1038A8001200E8CF29F0ACAC03D0AC9035B2AC80B4
:1038B80029C0ADFF120029C060F02AC061F061C0C4
:1038C800D7FF60C0D6FF120029C0A9FFA69CA69EFC
:1038D800A68000F000F0A850120015C017F016C01E
:1038E80018F018C0D7FF17C0D6FF1200D6CF17F0B0
:1038F800D7CF18F017C015F018C016F01200999914
:0239080099998B
:107E0800000000803FCDCCCC3D0AD7233C6F1283C5
:107E18003A17B7D138ACC52737BD37863595BFD6A1
:107E28003377CC2B325F708930FFE6DB2E08E53CD8
:107E38001E6042A20D0000803F000020410000C8E3
:107E48004200007A4400401C460050C34700247496
:107E5800498096184B20BCBE4C286B6E4EF9021513
:107E680050EC78AD60CAF24971010000000A0000C8
:107E78000064000000E803000010270000A086014D
:107E88000040420F008096980000E1F50500CA9A6C
:107E98003B3C70772020763D2730272F3E3C70777B
:107EA8002020763D2730272F3E3C70772020763DD6
:107EB8002730272F3E3C70772020763D2730272F0C
:107EC8003E3C70772020763D2730272F3E3C707748
:107ED8002020763D2730272F3E3C70772020763DA6
:107EE8002730272F3E3C70772020763D2730272FDC
:107EF8003E003C6D617820763D27342E3232272FA4
:107F08003E3C6D696E20763D27322E3232272F3E59
:107F18003C61766720763D27332E3232272F3E3C50
:107F28006D6F646520763D2733272F3E3C6D6F6467
:107F3800653220763D2733272F3E00272F3E203CF1
:107F480074746320763D2730272F3E203C726420CE
:107F5800763D2730272F3E203C616D7020763D27E7
:107F680030272F3E003C766F6C20763D2730272F38
:107F78003E3C63616D7020763D2730272F3E203CC4
:107F880074656D7020763D2730272F3E003C64686D
:107F980074313120763D27383527202F3E3C6468E0
:107FA80074313120763D27323527202F3E3C2F680B
:107FB8006561643E003C686561643E3C646F6E7553
:107FC8007420763D273836003C62742069643D276A
:107FD8000020633D2732272F3E0020633D273327AB
:107FE8002F3E0027252E326627002720763D002FBA
:087FF80048450025640000006B
:020000040030CA
:02000200011FDC
:0200060080FF79
:00000001FF
