:040000005BEF00F0C2
:0C000800FACF1AF0FBCF1BF063ED15F0EF
:10001800D8CF05F0E8CF06F0E0CF07F0FACF08F028
:10002800FBCF09F0E9CF0AF0EACF0BF0E1CF0CF0F3
:10003800E2CF0DF0D9CF0EF0DACF0FF0F3CF10F0FA
:10004800F4CF11F0F6CF12F0F7CF13F0F8CF14F089
:10005800F5CF15F09EA003D09E9030EC17F09EAC23
:1000680003D09E9C0AEC13F015C0F5FF14C0F8FFEE
:1000780013C0F7FF12C0F6FF11C0F4FF10C0F3FF62
:100088000FC0DAFF0EC0D9FF0DC0E2FF0CC0E1FFC0
:100098000BC0EAFF0AC0E9FF09C0FBFF08C0FAFF6E
:1000A80007C0E0FF06C0E8FF05C0D8FF10009EEFBC
:1000B80015F0E8CFF6F000010001F6513E0AD8A489
:1000C80009D00001F26F000E00010001B16F0001BC
:1000D800F251EDD200010001B151D8B4FAD20001B9
:1000E8000001B151070AD8A4E2D2000100019351DE
:1000F800EE0AD8A4DCD20001F26F000E0001000164
:10010800B16F0001F2510001F26F000E0001000111
:10011800B06F0001F2510001F26F000E0001000102
:10012800F76F0001F2511BD000010001F751010DDA
:1001380000018C0EF324D96E0001000EF420DA6E53
:10014800DF5000010001C76F00010001B051A5ECAC
:1001580016F000010001B06F00010001F72B050E39
:1001680000010001F765E0D700010001B05100016E
:1001780020EE92F0DF62ADD2000100018D51000146
:100188000001A76F000100018E510001A66F000158
:1001980000018F5100010001A56F0001000190517D
:1001A8000001A46FA6C0D1F0A7C0D2F0B0EC17F040
:1001B800D1C0D7F0D2C0D8F0D3C0D9F0D4C0DAF0CB
:1001C800000E00010001DB6F000E0001DC6FD20E93
:1001D8000001DD6F430E0001DE6F34EC05F0D7C07F
:1001E800C0F0D8C0C1F0D9C0C2F0DAC0C3F0000175
:1001F800000E00010001E56F0001C00E00010001C2
:10020800E46FA4C0D1F0A5C0D2F0B0EC17F0D1C013
:10021800E6F0D2C0E7F0D3C0E8F0D4C0E9F074EC5F
:1002280016F00001000E00010001E96F0001C00E88
:1002380000010001E86F000E00010001EA6F000EE6
:100248000001EB6F480E0001EC6F430E0001ED6FEB
:1002580043EC16F03950060D0001600EF324D96EF8
:100268000001000EF420DA6EC0C0C7F0C1C0C8F0AB
:10027800C2C0C9F0C3C0CAF03AEC0EF0C7C0F2F071
:10028800C8C0F3F0C9C0F4F0CAC0F5F00001F251DB
:10029800DF6E3950060D010EF326000EF422000120
:1002A800600EF324D96E0001000EF420DA6E00010E
:1002B80091C0DFFF39C0F2F0010E0001F36F0001B9
:1002C800F22B03D00001D890F3370001F22FFAD7B0
:1002D8000001F35100010001AE133950060D000171
:1002E800600EF324D96E0001000EF420DA6EDF50A0
:1002F8000001F26FD30E0001F25DD8B010D0395072
:10030800060D050EF326000EF4220001600EF324FC
:10031800D96E0001000EF420DA6E000EDF6E39503F
:10032800060D010EF326000EF4220001600EF324E0
:10033800D96E0001000EF420DA6EDF50D8B410D068
:100348003950060D050EF326000EF4220001600E4A
:10035800F324D96E0001000EF420DA6E010EDF6E70
:100368003950060D0001600EF324D96E0001000E0D
:10037800F420DA6EDF500001F26F650E0001F25DC5
:10038800D8B010D03950060D050EF326000EF42211
:100398000001600EF324D96E0001000EF420DA6E1D
:1003A800020EDF6E3950060D0001600EF324D96E7F
:1003B8000001000EF420DA6EDF500001F26F330EF8
:1003C8000001F25DD8B010D03950060D050EF326A5
:1003D800000EF4220001600EF324D96E0001000E15
:1003E800F420DA6E030EDF6E3950060D0001600E40
:1003F800F324D96E0001000EF420DA6EE50EDF64F6
:1004080010D03950060D050EF326000EF422000117
:10041800600EF324D96E0001000EF420DA6E040E8B
:10042800DF6E3950060D020EF326000EF42200018D
:10043800600EF324D96E0001000EF420DA6EDF504E
:100448000001F26F3950060D0001600EF324D96ED9
:100458000001000EF420DA6EDF500001F25DD8A032
:1004680011D03950060D020EF326000EF4220001B9
:10047800600EF324D96E0001000EF420DA6EFF0E30
:10048800DF6238D03950060D0001600EF324D96EB2
:100498000001000EF420DA6E3950060D020EF32624
:1004A800000EF4220001600EF324E16E0001000E3C
:1004B800F420E26EDFCFE7FF020E392400010001CD
:1004C800CC6F00010001CD6B000ECD233950060D15
:1004D800020EF326000EF4220001600EF324D96EFA
:1004E8000001000EF420DA6EDF5000010001CE6F2B
:1004F800ACEC18F03950060D0001600EF324D96EEB
:100508000001000EF420DA6EDF500001F26F39505E
:10051800060D030EF326000EF4220001600EF324EC
:10052800D96E0001000EF420DA6EDF500001F25D92
:10053800D8A011D03950060D030EF326000EF42270
:100548000001600EF324D96E0001000EF420DA6E6B
:10055800FF0EDF6238D03950060D0001600EF3241B
:10056800D96E0001000EF420DA6E3950060D030E24
:10057800F326000EF4220001600EF324E16E000160
:10058800000EF420E26EDFCFE7FF080E39240001E9
:100598000001CC6F00010001CD6B000ECD23395056
:1005A800060D030EF326000EF4220001600EF3245C
:1005B800D96E0001000EF420DA6EDF500001000150
:1005C800CE6FACEC18F03950060D040EF326000E71
:1005D800F4220001600EF324D96E0001000EF4200D
:1005E800DA6EDF500001F26F3950060D010EF32666
:1005F800000EF4220001600EF324D96E0001000EF3
:10060800F420DA6EDF500001F25DD8A011D0395025
:10061800060D040EF326000EF4220001600EF324EA
:10062800D96E0001000EF420DA6EFF0EDF623CD0B6
:100638003950060D010EF326000EF4220001600E5B
:10064800F324D96E0001000EF420DA6E3950060D3D
:10065800040EF326000EF4220001600EF324E16E6E
:100668000001000EF420E26EDFCFE7FF0E0E392402
:1006780000010001CC6F00010001CD6B000ECD23FD
:100688003950060D040EF326000EF4220001600E08
:10069800F324D96E0001000EF420DA6EDF50000159
:1006A8000001CE6FACEC18F001EC0BF012D0000199
:1006B8000001B151010D00018C0EF324D96E000127
:1006C800000EF420DA6E0001F6C0DFFF0001000121
:1006D800B12B12000001D1C0D9F00001D2C0DAF06C
:1006E8000001D3C0DBF00001D4C0DCF0180E06D046
:1006F8000001D890DC33DB33DA33D933E82EF8D76E
:100708000001D95100010001DF6F0001D5C0D9F007
:100718000001D6C0DAF00001D7C0DBF00001D8C074
:10072800DCF0180E06D00001D890DC33DB33DA3366
:10073800D933E82EF8D70001D95100010001DE6F46
:1007480000010001DF51D8B416D000010001DE51CC
:1007580000010001DF5DD8B017D000010001DF51B2
:10076800000800010001DE250001D96F210E0001FB
:10077800D95DD8A009D0D5C0D1F0D6C0D2F0D7C0A5
:10078800D3F0D8C0D4F06BD100010001DE51D8B449
:1007980016D000010001DF5100010001DE5DD8B074
:1007A80017D000010001DE51000800010001DF251B
:1007B8000001D96F210E0001D95DD8A009D0D1C0A0
:1007C800D1F0D2C0D2F0D3C0D3F0D4C0D4F047D146
:1007D8000001D96F060E00010001DD6F0001D9513B
:1007E80000010001D4AF03D000010001DD8F00013A
:1007F8000001D8AF03D000010001DD8D0001000128
:10080800D38FFF0E00010001D117FF0E0001D21790
:10081800FF0E0001D317000E0001D41700010001DC
:10082800D78FFF0E00010001D517FF0E0001D61764
:10083800FF0E0001D717000E0001D81700010001B4
:10084800DE5100010001DF5DD8B035D00001D8903D
:100858000001D5370001D6370001D7370001D83756
:1008680000010001DE0700010001DE510001000166
:10087800DF19D8B418D000010001DD07DDC0D9F0B8
:10088800070E0001D917D8B40ED0E0D70001D890D0
:100898000001D4330001D3330001D2330001D13336
:1008A80000010001DF2B00010001DE510001000101
:1008B800DF63ECD73CD000010001DF5100010001EB
:1008C800DE5DD8B034D00001D8900001D1370001E6
:1008D800D2370001D3370001D43700010001DF0708
:1008E80000010001DE5100010001DF19D8B418D061
:1008F80000010001DD07DDC0D9F0070E0001D9179E
:10090800D8B40ED0E0D70001D8900001D833000148
:10091800D7330001D6330001D53300010001DE2BA7
:1009280000010001DE5100010001DF63ECD7000186
:100938000001DDAF1AD0FF0E00010001D11BFF0E30
:100948000001D21BFF0E0001D31BFF0E0001D41BB8
:10095800010E00010001D127000E0001D223000E74
:100968000001D323000E0001D42300010001DDADF6
:100978001AD0FF0E00010001D51BFF0E0001D61B87
:10098800FF0E0001D71BFF0E0001D81B010E00014E
:100998000001D527000E0001D623000E0001D72341
:1009A800000E0001D8230001D96F000E00010001DC
:1009B800DD6F0001D95100010001D1510001000192
:1009C800D52700010001D25100010001D623000102
:1009D8000001D35100010001D72300010001D451C7
:1009E80000010001D82300010001D8AF22D0FF0E7A
:1009F80000010001D51BFF0E0001D61BFF0E0001F0
:100A0800D71BFF0E0001D81B010E00010001D527DE
:100A1800000E0001D623000E0001D723000E0001AE
:100A2800D8230001D96F010E00010001DD6F00011C
:100A3800D951D5C0C7F0D6C0C8F0D7C0C9F0D8C002
:100A4800CAF0DFC0CBF0DDC0CCF0DCEC0BF0C7C0E7
:100A5800D1F0C8C0D2F0C9C0D3F0CAC0D4F01200D7
:100A68000001D7C0DFF00001D8C0E0F00001D9C014
:100A7800E1F00001DAC0E2F0180E06D00001D890CB
:100A8800E233E133E033DF33E82EF8D70001DF51FA
:100A980000010001E36F0001E36701D01ED00001EF
:100AA800DBC0DFF00001DCC0E0F00001DDC0E1F0F8
:100AB8000001DEC0E2F0180E06D00001D890E23343
:100AC800E133E033DF33E82EF8D70001DF510001CE
:100AD8000001E96F0001E9670ED0000E0001000176
:100AE800D76F000E0001D86F000E0001D96F000EFD
:100AF8000001DA6FC1D000010001E9517B0F00014C
:100B08000001E327DAC0E9F000010001DE5100012D
:100B18000001E91B800E00010001E9170001000136
:100B2800D98F00010001DD8FFF0E00010001DB17E6
:100B3800FF0E0001DC17FF0E0001DD17000E00019B
:100B4800DE17000E00010001E46F000E0001E56FE2
:100B5800000E0001E66F000E0001E76F0001DF6F75
:100B6800070E00010001E86F0001DF5100010001DC
:100B7800D7A118D000010001DB5100010001E427D2
:100B880000010001DC5100010001E5230001000122
:100B9800DD5100010001E62300010001DE510001E2
:100BA8000001E7230001D8900001DA330001D933AE
:100BB8000001D8330001D7330001D8900001DB379A
:100BC8000001DC370001DD370001DE3700010001DC
:100BD800E82FCCD70001DF6F110E00010001E86F8C
:100BE8000001DF5100010001D7A118D00001000168
:100BF800DB5100010001E42700010001DC51000184
:100C08000001E52300010001DD5100010001E62398
:100C180000010001DE5100010001E7230001D89026
:100C28000001DA330001D9330001D8330001D7338A
:100C38000001D8900001E7330001E6330001E533F5
:100C48000001E43300010001E82FCCD7E4C0C7F06D
:100C5800E5C0C8F0E6C0C9F0E7C0CAF0E3C0CBF011
:100C6800E9C0CCF0DCEC0BF0C7C0D7F0C8C0D8F0B6
:100C7800C9C0D9F0CAC0DAF01200D6C0D9FFD7C0AF
:100C8800DAFF000EDF6E60AE29D0F10E6F1600019C
:100C9800D86F010E00010001DB6F0001D851A4904C
:100CA80074AE07D0D6C0D9FFD7C0DAFF000EDB86F6
:100CB800749E60A44AD060CFD8F0070E0001D81700
:100CC800D6C0D9FFD7C0DAFF0001D851DF12D6C08D
:100CD800D9FFD7C0DAFF010EDF1637D00F0150AFAA
:100CE800D1D0F10E6F160A0E6F120001D86F000EE8
:100CF80000010001DB6F0001D851A49274AC07D049
:100D0800D6C0D9FFD7C0DAFF000EDB86749C50CF5F
:100D1800D8F0070E0001D817D6C0D9FFD7C0DAFF20
:100D28000001D851DF12D6C0D9FFD7C0DAFFDF5093
:100D38000001D86F020E0001D85DD8B006D0D6C029
:100D4800D9FFD7C0DAFF000EDB8E65500F0BD4C079
:100D5800D9FFD5C0DAFFDF6E65AC06D0D6C0D9FFA3
:100D6800D7C0DAFF000EDB8C62A621D0D6C0D9FF2F
:100D7800D7C0DAFF000EDB8A0F0E00010001C86F32
:100D8800610E00010001C76F00010001D1C0CAF067
:100D980000010001D0C0C9F00001D86FF70E0001B2
:100DA8000001CB6F0001D85147EC07F01AD00F0EA5
:100DB80000010001C86F610E00010001C76F00014A
:100DC8000001D1C0CAF000010001D0C0C9F0000183
:100DD800D86FFF0E00010001CB6F0001D85147EC1E
:100DE80007F00F0E00010001DA6F660E0001000126
:100DF800D96F0001D86F000E00010001DC6F0001FF
:100E0800D85121D000010001DC51010DF35000013F
:100E18000001D925D96EF45000010001DA21DA6EFB
:100E280000010001DC51010DF35000010001D22541
:100E3800E16EF45000010001D321E26EDFCFE7FF3D
:100E480000010001DC2BD4C0D9FFD5C0DAFFDF5088
:100E580000010001DC5DD8A0D5D7F10E6F16A4AE55
:100E680007D0D6C0D9FFD7C0DAFF000EDB88A49E12
:100E780000010001DB51D8B402D0609E03D00F01FD
:100E88000F01509F120000010001CAC0CFF00001FD
:100E98000001C9C0CEF000010001CBA763D0C7C0D4
:100EA800D9FFC8C0DAFFDF500001CC6F0001D8902D
:100EB800CC370001D890CC370001D890CC35CEC0C3
:100EC800D9FFCFC0DAFFDF6E000120EE01F000018C
:100ED800CE51D9260001CF51DA22C7C0E1FFC8C0E0
:100EE800E2FFE7500001CC6F050E0001CD6F000155
:100EF800D890CC330001CD2FFAD70001CC51DF6E4A
:100F080000010001C74BC82BC7C0D9FFC8C0DAFF12
:100F1800DF500001CC6F050E0001CD6F0001D890A5
:100F2800CC330001CD2FFAD7CEC0D9FFCFC0DAFF1E
:100F38000001CC51DF12000120EE02F00001CE5179
:100F4800D9260001CF51DA22000EDF6E000120EE13
:100F580003F00001CE51D9260001CF51DA22000E4C
:100F6800DF6E90D0000120EE02F00001CE51D926AC
:100F78000001CF51DA22C7C0E1FFC8C0E2FFE75045
:100F88000001CC6F050E0001CD6F0001D890CC3761
:100F98000001CD2FFAD70001CC51DF6E000120EE01
:100FA80003F00001CE51D9260001CF51DA22C7C083
:100FB800E1FFC8C0E2FFE7500001CC6F0001D89004
:100FC800CC330001D890CC330001D890CC31DF6EFF
:100FD80000010001C74BC82BC7C0D9FFC8C0DAFF42
:100FE800DF500001CC6F030E0001CC17000120EE8A
:100FF80002F00001CE51D9260001CF51DA220001BA
:10100800CC51DF12C7C0D9FFC8C0DAFFDF500001DA
:10101800CC6F0001D890CC330001D890CC330001BC
:10102800D890CC331C0E0001CC17000120EE02F042
:101038000001CE51D9260001CF51DA220001CC514E
:10104800DF1200010001C74BC82BC7C0D9FFC8C0B9
:10105800DAFF000110EE01F00001CE51E126000197
:10106800CF51E222DFCFE7FF00010001C74BC82BB9
:10107800C7C0D9FFC8C0DAFFCEC0E1FFCFC0E2FFCA
:10108800DFCFE7FF12000001000E00010001D16F61
:101098000001C90E00010001D06F00010001CDA7B9
:1010A8004DD0D0C0D9FFD1C0DAFFDF500001CE6FDC
:1010B8000001D890CE330001D890CE330001D890EB
:1010C800CE31C7C0D9FFC8C0DAFFDF6E000120EEFD
:1010D80001F00001D051D9260001D151DA22DF50A8
:1010E8000001CE6F050E0001CF6F0001D890CE37FA
:1010F8000001CF2FFAD7C7C0D9FFC8C0DAFF000157
:10110800CE51DF1200010001C74BC82BD0C0D9FF58
:10111800D1C0DAFFDF500001CE6F050E0001CF6F9E
:101128000001D890CE370001CF2FFAD70001CE5159
:10113800C7C0D9FFC8C0DAFFDF6E94D0000120EE27
:1011480002F00001D051D9260001D151DA22DF5036
:101158000001CE6F050E0001CF6F0001D890CE338D
:101168000001CF2FFAD70001CE51C7C0D9FFC8C0A0
:10117800DAFFDF6E000120EE03F00001D051D9261E
:101188000001D151DA22DF500001CE6F0001D89062
:10119800CE370001D890CE370001D890CE37C7C0DF
:1011A800D9FFC8C0DAFF0001CE51DF1200010001EB
:1011B800C74BC82B000120EE02F00001D051D92600
:1011C8000001D151DA22DF500001CE6F0001D89022
:1011D800CE370001D890CE370001D890CE35E00B3D
:1011E800C7C0D9FFC8C0DAFFDF6EC7C0D9FFC8C003
:1011F800DAFF000EDB86000120EE02F00001D0517C
:10120800D9260001D151DA22DF500001CE6F030E3A
:101218000001CE17C7C0D9FFC8C0DAFF0001CE5100
:10122800DF1200010001C74BC82B000120EE01F0BE
:101238000001D051D9260001D151DA22C7C0E1FFFF
:10124800C8C0E2FFDFCFE7FF00010001C74BC82B92
:10125800D0C0D9FFD1C0DAFFC7C0E1FFC8C0E2FFE4
:10126800DFCFE7FF12000001D1C0D9F00001D2C0E2
:10127800DAF00001D3C0DBF00001D4C0DCF0180EB6
:1012880006D00001D890DC33DB33DA33D933E82ECB
:10129800F8D70001D95100010001E26F0001E267AF
:1012A80001D01ED00001D5C0D9F00001D6C0DAF0B7
:1012B8000001D7C0DBF00001D8C0DCF0180E06D062
:1012C8000001D890DC33DB33DA33D933E82EF8D792
:1012D8000001D95100010001E36F0001E3670ED05E
:1012E800000E00010001D16F000E0001D26F000E48
:1012F8000001D36F000E0001D46F9ED000010001E1
:10130800E351890F00010001E25FD4C0E3F000015E
:101318000001D85100010001E31B800E000100010B
:10132800E31700010001D38FFF0E00010001D11760
:10133800FF0E0001D217FF0E0001D317000E0001A7
:10134800D41700010001D78FFF0E00010001D51747
:10135800FF0E0001D617FF0E0001D717000E00017F
:10136800D8170001D96F200E00010001E16F0001BC
:10137800D9510001D8900001DD370001DE370001A6
:10138800DF370001E03700010001D55100010001FD
:10139800D15D00010001D65100010001D2590001C0
:1013A8000001D75100010001D35900010001D851B3
:1013B80000010001D459D8A01BD000010001D5516B
:1013C80000010001D15F00010001D65100010001B8
:1013D800D25B00010001D75100010001D35B00017D
:1013E8000001D85100010001D45B00010001DD813A
:1013F8000001D8900001D1370001D2370001D3375E
:101408000001D43700010001E12FB3D7DDC0C7F0D8
:10141800DEC0C8F0DFC0C9F0E0C0CAF0E2C0CBF05F
:10142800E3C0CCF0DCEC0BF0C7C0D1F0C8C0D2F000
:10143800C9C0D3F0CAC0D4F01200E8CFE3F0000E60
:1014480000010001E66F000E0001E76F000E0001C9
:10145800E86F000E0001E96F800EA0EC18F0738AA7
:10146800DAC0C7F0DBC0C8F0DCC0C9F0DDC0CAF024
:10147800DEC0CBF000010001E3510FEC16F00001D3
:101488000001DE51600B606E60CF50FFE6C0D2F005
:10149800E7C0D3F0E8C0D4F0E9C0D5F00001DF6FB1
:1014A800F70E00010001D66F0001DF51000E03ECBA
:1014B80017F0E6C0D2F0E7C0D3F0E8C0D4F0E9C036
:1014C800D5F00001DF6FF70E00010001D66F0001B3
:1014D800DF51010E03EC17F01CD00001DF6FF70E8F
:1014E80000010001E46F0001DF510AD00001000192
:1014F800E46900010001E5692ED000010001E469FA
:101508000001DF6FF70E00010001E56F0001DF51F8
:1015180022D09F0E0001DF6FFF0EE06F0001000177
:10152800DE51600B0001E16FE26B0001DF51000149
:10153800E1130001E0510001E2130001E251000A49
:10154800D8A4DBD70001E151BF0AD8B4CFD7600ACD
:10155800D8B4C3D7D2D7E6C0D2F0E7C0D3F0E8C03A
:10156800D4F0E9C0D5F0E4C0D6F0000ED6EC13F004
:10157800E6C0D2F0E7C0D3F0E8C0D4F0E9C0D5F0B7
:10158800E4C0D6F0010ED6EC13F0E6C0D2F0E7C006
:10159800D3F0E8C0D4F0E9C0D5F0E5C0D6F0020E2B
:1015A800D6EC13F0E6C0D2F0E7C0D3F0E8C0D4F030
:1015B800E9C0D5F0E5C0D6F0030ED6EC13F0E6C0CE
:1015C800D2F0E7C0D3F0E8C0D4F0E9C0D5F0E5C068
:1015D800D6F0040ED6EC13F0E6C0D2F0E7C0D3F094
:1015E800E8C0D4F0E9C0D5F0E5C0D6F0050ED6ECD9
:1015F80013F0000EA0EC18F012000001C86F000EE6
:101608003C6E0001C8510001C86F000E3B6E00011E
:10161800C851FD0E316EFC0E306E392A050E396444
:10162800BCD00001C86F000E396E0001C85100011E
:10163800C86F000E00010001C96F0001C851000108
:10164800C86F000E00010001CA6F0001C8510001F7
:101658000001AE8F0001C86F000E00010001AF6FDE
:101668000001C8510001C86F000E00010001CB6FD6
:101678000001C85100010001CB51800A7A0FD8B08F
:1016880076D000010001CB51060D050EF326000EA1
:10169800F4220001600EF324D96E0001000EF4203C
:1016A800DA6E010EDF6206D000010001C92B0001CD
:1016B8000001AF8300010001CB51060D050EF32692
:1016C800000EF4220001600EF324D96E0001000E12
:1016D800F420DA6EDF50050AD8B403D00001000107
:1016E800CA2B00010001CB51060D050EF326000E92
:1016F800F4220001600EF324D96E0001000EF420DC
:10170800DA6E040EDF6203D000010001AF89000128
:101718000001CB51060D050EF326000EF422000140
:10172800600EF324D96E0001000EF420DA6E030E69
:10173800DF6203D000010001AF8700010001CB5137
:10174800060D050EF326000EF4220001600EF324A8
:10175800D96E0001000EF420DA6E020EDF6203D0AB
:1017680000010001AF8500010001CB2B83D70001E8
:101778000001C951060AD8A403D000010001AF81B5
:1017880000010001CA51060AD8A404D000010001D2
:10179800AE8D03D000010001AE9D0001C86F000EA0
:1017A80000010001B16F0001C851D4EC18F012001B
:1017B80000010001CB51D8B408D000010001CA5182
:1017C800C711C811C911D8A41BD0000E000100010F
:1017D800C76F000E0001C86F000E0001C96F000E30
:1017E8000001CA6FBDD000010001CB2B0001D890C9
:1017F8000001CA330001C9330001C8330001C733EF
:10180800000E00010001C7150001CD6F000E000198
:101818000001C8150001CE6F000E00010001C915B6
:101828000001CF6FFE0E00010001CA150001D06F44
:101838000001D051CD11CE11CF11D8B41BD0D3D7C0
:1018480000010001CB2B010E00010001C727000E8B
:101858000001C823000E0001C923000E0001CA239D
:101868000001D8900001CA330001C9330001C83310
:101878000001C733000E00010001C7150001CD6F3C
:10188800000E00010001C8150001CE6F000E000116
:101898000001C9150001CF6FFF0E00010001CA1534
:1018A8000001D06F0001D051CD11CE11CF11D8B4A5
:1018B8000ED0C6D700010001CB070001D890000167
:1018C800C7370001C8370001C9370001CA3700010E
:1018D8000001C9AFEFD700010001CBB10DD0FF0E59
:1018E80000010001C717FF0E0001C8177F0E000195
:1018F800C917FF0E0001CA170001D890CB330001A9
:10190800CBC0CDF00001CE6BCF6BD06BCDC0D0F08B
:101918000001CF6BCE6BCD6B0001CD5100010001F2
:10192800C7130001CE5100010001C8130001CF51B7
:1019380000010001C9130001D05100010001CA13C0
:1019480000010001CC51D8B403D000010001CA8FB6
:10195800C7C0C7F0C8C0C8F0C9C0C9F0CAC0CAF07B
:101968001200380D4E0D630D790D8F0DA50DBB0DB1
:10197800D10DE80DFE0D140E2B0E410E580E6E0EF5
:10198800850E9C0EB20EC90EE00EF70E0E0F250F37
:101998003C0F530F6A0F820F990FB00FC80FDF0F5C
:1019A800F70F0E1026103D1055106D1084109C1066
:1019B800B410CC10E410FC1014112C1144115C115B
:1019C80074118C11A411BC11D411EC1105121D1243
:1019D80035124D1266127E129612AF12C712DF121E
:1019E800F812101329134113591372138A13A313EE
:1019F800BB13D413EC1305141D1436144E146714BA
:101A08007F149814B014C914E114FA1412152B1584
:101A180043155C1574158D15A515BE15D615EF154E
:101A28000716201638165116691681169A16B21618
:101A3800CB16E316FB1614172C1744175C177517EB
:101A48008D17A517BD17D517EE1706181E183618C7
:101A58004E1866187E189618AE18C618DE18F618AE
:101A68000E1925193D1955196D1985199C19B4199F
:101A7800CC19E319FB19121A2A1A411A591A701AA1
:101A8800881A9F1AB61ACE1AE51AFC1A131B2A1BB3
:101A9800411B591B701B871B9E1BB51BCB1BE21BD5
:101AA800F91B101C271C3D1C541C6B1C811C981C0A
:101AB800AE1CC51CDB1CF21C081D1E1D351D4B1D54
:101AC800611D771D8D1DA31DB91DCF1DE51DFB1DB6
:101AD800111E271E3D1E521E681E7E1E931EA91E25
:101AE800BE1ED41EE91EFE1E141F291F3E1F531FB3
:101AF800691F000E00010001CA6F000E0001C96FC6
:101B0800F7EC18F000010001C66F000E000100019B
:101B1800CA6F010E0001C96FF7EC18F03A6E000E9B
:101B280000010001CE6F000E0001CD6F0001000121
:101B3800CE51800A800F060ED8B4CD5DD8B095D0AE
:101B4800CDC0C7F0CEC0C8F0000E00010001CA6FBA
:101B5800060E0001C96FD5EC16F0020E0001000157
:101B6800C727000E0001C8230001600E0001000114
:101B7800C725D96E0001000E00010001C821DA6EE8
:101B8800020E00010001CD2500010001C96F000E01
:101B980000010001CE210001CA6FF7EC18F0DF6EDA
:101BA800CDC0C7F0CEC0C8F0000E00010001CA6F5A
:101BB800060E0001C96FD5EC16F0030E00010001F6
:101BC800C727000E0001C8230001600E00010001B4
:101BD800C725D96E0001000E00010001C821DA6E88
:101BE800080E00010001CD2500010001C96F000E9B
:101BF80000010001CE210001CA6FF7EC18F0DF6E7A
:101C0800CDC0C7F0CEC0C8F0000E00010001CA6FF9
:101C1800060E0001C96FD5EC16F0040E0001000194
:101C2800C727000E0001C8230001600E0001000153
:101C3800C725D96E0001000E00010001C821DA6E27
:101C48000E0E00010001CD2500010001C96F000E34
:101C580000010001CE210001CA6FF7EC18F0DF6E19
:101C680000010001CD4BCE2B61D712000001C7C087
:101C7800CBF00001C8C0CCF00001C9C0CDF0000114
:101C8800CAC0CEF0180E06D00001D890CE33CD339E
:101C9800CC33CB33E82EF8D70001CB51000100013B
:101CA800D06F0001D06701D053D00001C7C0CBF07E
:101CB8000001C8C0CCF00001C9C0CDF00001CAC005
:101CC800CEF0200E06D00001D890CE33CD33CC33E1
:101CD800CB33E82EF8D70001CB5100010001CF6FBC
:101CE80000010001C98FFF0E00010001C717FF0E98
:101CF8000001C817FF0E0001C917000E0001CA171E
:101D0800960E00010001D05F00010001D0AF1BD08A
:101D180000010001D051800A0001CB6FE90E800A52
:101D28000001CB5DD8A014D00001D8900001CA33BF
:101D38000001C9330001C8330001C73300010001A5
:101D4800D03FF2D724D01F0E00010001D0651BD070
:101D5800000E00010001C76F000E0001C86F000EE1
:101D68000001C96F000E0001CA6F2ED00001D89083
:101D78000001C7370001C8370001C9370001CA3759
:101D880000010001D00700010001D067EFD7000172
:101D98000001CF51D8B410D000010001CA1F0001C2
:101DA800C91F0001C81F0001C76D000E0001C8232C
:101DB8000001C9230001CA23C7C0C7F0C8C0C8F0C2
:101DC800C9C0C9F0CAC0CAF012000F0140B704D098
:101DD800F10E6F166F860ED00F0130B705D0F10ED9
:101DE8006F16060E6F1206D00F0120B784D0F10EC1
:101DF8006F166F8400010001D951030B606E00015A
:101E08000001D9B71BD00F0E00010001C86F610E89
:101E180000010001C76FD2C0C9F0D3C0CAF0D4C056
:101E2800CBF0D5C0CCF00001DA6FF70E000100014D
:101E3800CD6F0001DA5147EC08F01AD00F0E0001FF
:101E48000001C86F610E00010001C76FD2C0C9F060
:101E5800D3C0CAF0D4C0CBF0D5C0CCF00001DA6F43
:101E6800FF0E00010001CD6F0001DA5147EC08F0C8
:101E7800D8C065FF00010001D9AD658C0F0E0001C7
:101E88000001DC6F660E00010001DB6F0001DA6FF4
:101E9800000E00010001DD6F0001DA5121D00001C0
:101EA8000001DD51010DF35000010001D625D96E66
:101EB800F45000010001D721DA6E00010001DD5164
:101EC800010DF35000010001DB25E16EF450000123
:101ED8000001DC21E26EDFCFE7FF00010001DD2B0E
:101EE80000010001D85100010001DD5DD8A0D7D75D
:101EF8006086F10E6F16120000010001AB51AA11A5
:101F0800D8B454D0000E00010001AB6F000E0001E0
:101F1800AA6F0001FA6F010E00010001B66F0001FF
:101F2800FA510001FA6F010E00010001B46F0001BF
:101F3800FA510001FA6F010E00010001B56F0001AE
:101F4800FA5100010001AD51D8B427D0D7EC15F0F3
:101F58000001FA6F000E00010001AC6F0001FA5198
:101F68000001FA6F000E386E0001FA5100010001FD
:101F7800AC51010D0001FB0EF324D96E0001000ED7
:101F8800F420DA6EDF5074EC18F00001FA6F000EDE
:101F980000010001AD6F0001FA518A7200010001D1
:101FA800AEBD81B202D0818001D0819000010001D4
:101FB800A951A811D8B424D0000E00010001A96FBE
:101FC800000E0001A86F0001FA6F010E0001000168
:101FD800B26F0001FA510001FA6F010E0001000111
:101FE800B76F0001FA510001FA6F010E00010001FC
:101FF800B36F0001FA513C2A00010001AEAD8A70AE
:10200800F3EC10F086EC10F09FEC12F034EC12F0C8
:10201800C9EC11F05EEC11F015EC10F075EC13F052
:102028001200EFEC18F00009D8B404D026EC18F030
:102038005DEC00F0010E3C6464D00001F86F000E06
:102048003C6E0001F8513B2A050E3026000E312265
:102058004C0E305CFE0E3158D8A004D0FD0E316E07
:10206800A70E306EA80E305CFD0E3158D8B004D0E3
:10207800FD0E316EA70E306E220E3B6442D03950F1
:10208800060D050EF326000EF4220001600EF3245F
:10209800D96E0001000EF420DA6E050EDF6E39509D
:1020A800060D0001600EF324D96E0001000EF42025
:1020B800DA6EFF0EDF6E3950060D010EF326000EA4
:1020C800F4220001600EF324D96E0001000EF42002
:1020D800DA6EFF0EDF6E39C0F8F0010E0001F96FFD
:1020E8000001F82B03D00001D890F9370001F82F30
:1020F800FAD70001F951FF0A00010001AE1701ECFF
:102108000BF0120000010001B205D8A467D00F013E
:1021180040A706D00F0130A703D00F0120B75ED02B
:102128000001DE6F000E00010001B26F0001DE51F8
:10213800AEC0B8F0AFC0B9F094C0BAF096C0BBF06A
:1021480098C0BCF09AC0BDF0C6C0BEF00001C6C0C1
:10215800DEF00001DF6BE06BE16BE0C0E1F0DFC0B7
:10216800E0F0DEC0DFF00001DE6B100E0001DE11D2
:10217800000100019C6F000E0001DF1100019D6F3E
:10218800FF0E0001E01100019E6F180E0001E11121
:1021980000019F6F9CC0D2F09DC0D3F09EC0D4F0C8
:1021A8009FC0D5F00001000E00010001D76F0001AB
:1021B800B80E00010001D66F0001DE6F070E0001A6
:1021C8000001D86F0001DE510001DF6FF40E00013D
:1021D8000001D96F0001DF51E9EC0EF01200000197
:1021E8000001B705D8A465D00F0140A706D00F019C
:1021F80030A703D00F0120B75CD00001DE6F000EBE
:1022080000010001B76F0001DE5160C0B8F066C080
:10221800B9F06CC0BAF072C0BBF078C0BCF07EC038
:10222800BDF00001C6C0DEF00001DF6BE06BE16BC2
:10223800E0C0E1F0DFC0E0F0DEC0DFF00001DE6BFF
:10224800110E0001DE11000100019C6F000E00015B
:10225800DF1100019D6FFF0E0001E01100019E6F6C
:10226800180E0001E11100019F6F9CC0D2F09DC0C3
:10227800D3F09EC0D4F09FC0D5F00001000E00013D
:102288000001D76F0001B80E00010001D66F0001F0
:10229800DE6F060E00010001D86F0001DE5100015B
:1022A800DF6FF40E00010001D96F0001DF51E9EC86
:1022B8000EF0120000010001B605D8A465D00F0188
:1022C80040A706D00F0130A703D00F0120B75CD07C
:1022D8000001DE6F000E00010001B66F0001DE5143
:1022E80063C0B8F069C0B9F06FC0BAF075C0BBF090
:1022F8007BC0BCF081C0BDF00001C6C0DEF00001AB
:10230800DF6BE06BE16BE0C0E1F0DFC0E0F0DEC066
:10231800DFF00001DE6B140E0001DE110001000188
:102328009C6F000E0001DF1100019D6FFF0E000180
:10233800E01100019E6F180E0001E11100019F6F6E
:102348009CC0D2F09DC0D3F09EC0D4F09FC0D5F001
:102358000001000E00010001D76F0001B80E000156
:102368000001D66F0001DE6F060E00010001D86F74
:102378000001DE510001DF6FF40E00010001D96F8A
:102388000001DF51E9EC0EF0120000010001B50573
:10239800D8A465D00F0140A706D00F0130A703D0FD
:1023A8000F0120B75CD00001DE6F000E00010001B4
:1023B800B56F0001DE5162C0B8F068C0B9F06EC0F8
:1023C800BAF074C0BBF07AC0BCF080C0BDF00001A8
:1023D800C6C0DEF00001DF6BE06BE16BE0C0E1F04E
:1023E800DFC0E0F0DEC0DFF00001DE6B130E00019D
:1023F800DE11000100019C6F000E0001DF110001D9
:102408009D6FFF0E0001E01100019E6F180E000184
:10241800E11100019F6F9CC0D2F09DC0D3F09EC017
:10242800D4F09FC0D5F00001000E00010001D76F65
:102438000001B80E00010001D66F0001DE6F060E24
:1024480000010001D86F0001DE510001DF6FF40EBA
:1024580000010001D96F0001DF51E9EC0EF0120014
:1024680000010001B405D8A465D00F0140A706D02B
:102478000F0130A703D00F0120B75CD00001DE6F39
:10248800000E00010001B46F0001DE5164C0B8F015
:102498006AC0B9F070C0BAF076C0BBF07CC0BCF0BE
:1024A80082C0BDF00001C6C0DEF00001DF6BE06B4A
:1024B800E16BE0C0E1F0DFC0E0F0DEC0DFF000017A
:1024C800DE6B150E0001DE11000100019C6F000E8D
:1024D8000001DF1100019D6FFF0E0001E0110001F6
:1024E8009E6F180E0001E11100019F6F9CC0D2F091
:1024F8009DC0D3F09EC0D4F09FC0D5F00001000E5F
:1025080000010001D76F0001B80E00010001D66F6D
:102518000001DE6F060E00010001D86F0001DE51D8
:102528000001DF6FF40E00010001D96F0001DF51D7
:10253800E9EC0EF0120000010001B305D8A465D043
:102548000F0140A706D00F0130A703D00F0120B715
:102558005CD00001DE6F000E00010001B36F0001C6
:10256800DE5161C0B8F067C0B9F06DC0BAF073C091
:10257800BBF079C0BCF07FC0BDF00001C6C0DEF082
:102588000001DF6BE06BE16BE0C0E1F0DFC0E0F081
:10259800DEC0DFF00001DE6B120E0001DE1100016B
:1025A80000019C6F000E0001DF1100019D6FFF0EFE
:1025B8000001E01100019E6F180E0001E1110001F9
:1025C8009F6F9CC0D2F09DC0D3F09EC0D4F09FC036
:1025D800D5F00001000E00010001D76F0001B80E10
:1025E80000010001D66F0001DE6F060E0001000138
:1025F800D86F0001DE510001DF6FF40E0001000109
:10260800D96F0001DF51E9EC0EF01200036E000EE5
:10261800046E0350FEEC18F000010001AC51020DED
:10262800280EF324D96E000EF420DA6E0150DE264F
:102638000250DD2200010001AC2B030E0001000155
:10264800AC653FD0036E000E00010001AC6F035073
:10265800382A0F0E386435D0036E000E386E0350DA
:10266800036E000E046E035023D00450020D280E92
:10267800F324D96E000EF420DA6E0450020D000126
:10268800840EF324E16E0001000EF420E26EDECF2A
:10269800E6FFDDCFE5FF0450020D280EF324D96EC6
:1026A800000EF420DA6E000EDE6E000EDD6E042AD7
:1026B800030E0464DAD7036E010E00010001AD6F4A
:1026C800035000010001AC51010D0001FB0EF32481
:1026D800D96E0001000EF420DA6EDF5085EC18F098
:1026E800120060BE03D00F0150AF5BD00001000E96
:1026F80000010001D16F0001DD0E00010001D06F63
:102708000001000E00010001D36F0001B80E0001A6
:102718000001D26F0001000E00010001D56F000119
:10272800C40E00010001D46F0001000E0001000179
:10273800D76F0001C50E00010001D66F41EC06F00D
:10274800E0C0A0F0DFC0A1F0DEC0A2F0DDC0A3F0C1
:1027580000010001A051180AD8A423D000010001EB
:10276800C651000120EEA2F0DF621BD0000100017B
:10277800A36717D0000E00010001CD6F000E000105
:10278800CC6FBBC0CEF0ACEC18F0000E000100011D
:10279800CD6F010E0001CC6FBAC0CEF0ACEC18F0D2
:1027A800FF001200E8CFD7F033D00F010F0E000161
:1027B8000001D96F0F01000E27D00F010F0E000185
:1027C8000001D96F0F01040E1FD00F010F0E000179
:1027D8000001D96F0F01080E17D00F010F0E00016D
:1027E8000001D96F0F010C0E0FD00F010F0E000161
:1027F8000001D96F0F01100E07D00F010F0E000155
:102808000001D96F0F01140E00010001D86F13D019
:1028180000010001D751000AD8B4C7D7010AD8B4BB
:10282800CCD7030AD8B4D1D7010AD8B4D6D7070A67
:10283800D8B4DBD7E2D700010001D9C0C8F0000145
:102848000001D8C0C7F0D2C0C9F0D3C0CAF0D4C004
:10285800CBF0D5C0CCF0D6C0CDF047EC08F01200D4
:102868000001EA6F020E00010001DA6F0001EA516F
:102878000001EB6F020E00010001DB6F0001EB515C
:102888000001EC6F030E00010001DC6F0001EC5148
:102898000001ED6F020E00010001DD6F0001ED5136
:1028A8000001EE6FDF0E00010001DE6F0001EE5146
:1028B800010E21EC0AF00001EA6F780E0001000118
:1028C800EF6F0001EA51040E00010001D26F040EFF
:1028D8000001D36F040E0001D46F040E0001D56F00
:1028E8000001000E00010001D76F0001EF0E00018A
:1028F8000001D66F0001EA6F080E00010001D86FD1
:102908000001EA510001EB6FF40E00010001D96FDC
:102918000001EB51E9EC0EF012003E6652D0455032
:10292800D8B41BD0482E4DD0166E000E456E1650EA
:10293800000E3F6E4150010D0101000EF324D96EC7
:102948000101010EF420DA6E46C0DFFF412A1F0E96
:10295800416437D0000E416E34D03F6618D05CEC2D
:1029680017F0176E17662DD0010E3F6E166E000E0B
:10297800466E1650166E040E486E1650166E080EE9
:10298800446E1650166E010E476E16501AD048C087
:1029980019F0192E14D0166E030E196E16505CEC31
:1029A80017F0186E1850D8B402D047504612D89075
:1029B8004736442E04D0166E010E456E165019C0C7
:1029C80048F01200E8CFCBF0000EC26E000EC06EC9
:1029D80000010001D890C7313C0BC26EC7C0C9F0D6
:1029E8000001C93BF00EC917300E0001C9170001DC
:1029F8000001C8510F0B0001C911C16ECBC0C9F04D
:102A08000001D890C9370001D890C937380E0001A5
:102A1800C917CBC0CAF00001CA3B0F0ECA17070E70
:102A28000001CA1700010001CB51800B0001CA1137
:102A38000001C911C06E00010001C7AF03D09E9C00
:102A48009D8CF28CC2801200FF0E00010001CC6F39
:102A5800CE0E0001CB6F0001C96F010E000100010D
:102A6800CD6F0001C95107D000010001CD2B000135
:102A78000001CB4BCC2B00010001CD51020D200EE3
:102A8800F324D96E010EF420DA6EDECFC9F0DDCF63
:102A9800CAF000010001C7510001C95D0001000131
:102AA800C8510001CA59D8B005D0C70E00010001AD
:102AB800CD65DAD7CBC0C7F0CCC0C8F0120006008D
:102AC800E9CF1CF0EACF1DF0E1CF1EF0E2CF1FF0F6
:102AD800D9CF20F0DACF21F0F3CF22F0F4CF23F0D2
:102AE800F6CF24F0F7CF25F0F8CF26F0F5CF27F072
:102AF800F2A403D0F294C1EC18F027C0F5FF26C069
:102B0800F8FF25C0F7FF24C0F6FF23C0F4FF22C05A
:102B1800F3FF21C0DAFF20C0D9FF1FC0E2FF1EC0AB
:102B2800E1FF1DC0EAFF1CC0E9FF1BC0FBFF1AC084
:102B3800FAFF110001EE00F0200EEE6AE806FDE152
:102B480000EE60F0670EEE6AE806FDE100EE28F0A0
:102B5800210EEE6AE806FDE16A0EF66E190EF76EB2
:102B6800000EF86E01EE20F011EE90F00900F5CF9E
:102B7800EEFFE550E150FAE1E250F8E1120EF66E90
:102B8800320EF76E000EF86E00EEFBF010EE04F059
:102B98000900F5CFEEFFE550E150FAE1000EF86EBE
:102BA80000014AEF18F00001CE6F000E000100018D
:102BB800CF6F0001CE5129D000010001CF51020D85
:102BC8000001840EF324D96E0001000EF420DA6EA1
:102BD8000001DECFC7F00001DDCFC8F028EC15F00A
:102BE80000010001CF51020D0001940EF324D96EAB
:102BF8000001000EF420DA6E0001C7C0DEFF0001FC
:102C0800C8C0DDFF00010001CF2B030E0001000149
:102C1800CF65D2D71200E8CFCCF000010001CC0775
:102C280000010001C70700010001C80700010001F9
:102C3800C90700010001CA0700010001CC41E842B0
:102C4800C00B706E00010001C75170120001000135
:102C5800C839E842F80B716E00010001CA517112BF
:102C680000010001CBA5718C00010001CBB1718E70
:102C7800C9C072FF00010001CBB3728C1200E8C01A
:102C8800D9FFE9C0DAFF0001DECFE0F00001DECFB6
:102C9800E1F00001DECFE2F00001DECFE3F0EAC0B0
:102CA800E4F0EBC0E5F0ECC0E6F0EDC0E7F0D8ECFE
:102CB80017F0E0C0EEF0E1C0EFF0E2C0F0F0E3C0E2
:102CC800F1F0E8C0D9FFE9C0DAFFEEC0DEFFEFC0DF
:102CD800DEFFF0C0DEFFF1C0DDFFD906D906120025
:102CE800E4C0D9FFE5C0DAFF0001DECFD1F0000172
:102CF800DECFD2F00001DECFD3F00001DECFD4F07A
:102D0800E6C0D5F0E7C0D6F0E8C0D7F0E9C0D8F003
:102D180037EC09F0D1C0EAF0D2C0EBF0D3C0ECF048
:102D2800D4C0EDF0E4C0D9FFE5C0DAFFEAC0DEFFA9
:102D3800EBC0DEFFECC0DEFFEDC0DDFFD906D90633
:102D48001200E8CFCAF000010001CA5100010001D9
:102D5800C71900010001CA6F0001C86F000E000109
:102D68000001C96F0001C85113D000010001CAA1B8
:102D780009D000010001D890CA318C0A0001000175
:102D8800CA6F03D00001D890CA3300010001C92BD3
:102D9800070E00010001C965E8D700010001CA510A
:102DA8001200000E00010001CC6F000E0001CB6F75
:102DB80000010001C7A10CD000010001C9510001A8
:102DC8000001CB2700010001CA5100010001CC23FA
:102DD800000100010001D890C937CA37000100017D
:102DE8000001D890C833C73300010001C851C7118A
:102DF800D8A4DED7CBC0C7F0CCC0C8F01200E8CF4B
:102E0800D7F000010001D76708D00F010F0E0001AD
:102E18000001D96F0F01180E07D00F010F0E000126
:102E28000001D96F0F011C0E00010001D86F0001CD
:102E38000001D9C0C8F000010001D8C0C7F0D2C055
:102E4800C9F0D3C0CAF0D4C0CBF0D5C0CCF0D6C03E
:102E5800CDF047EC08F012009E909E0E026E580EC0
:102E6800016EDDEC18F0364A372A37503610D8B4E0
:102E78000DD0000E376E000E366E344A352A000E1D
:102E880000010001A96F010E0001A86F0A0E345C51
:102E9800000E3558D8A00BD0000E356E000E346EDB
:102EA800000E00010001AB6F010E0001AA6F1200B5
:102EB80015D082A011D00ED082A20ED00BD082A441
:102EC8000BD008D083A008D005D083A805D002D0A5
:102ED80083AC02D0010E16D0000E14D03950000A6F
:102EE800D8B4E7D7010AD8B4E7D7030AD8B4E7D7E4
:102EF800010AD8B4E7D7070AD8B4E7D7010AD8B483
:102F0800E7D7EAD7120092809282928492869F9C99
:102F18000001CC6F000E00010001AC6F0001CC5124
:102F28000001CC6F000E386E0001CC510001CC6F4F
:102F3800840E00010001C76F0001CC510001CD6F64
:102F4800FB0E00010001C86F0001CD51A90EE6EC8F
:102F580014F00BEC19F0120000010001D1C0C7F009
:102F680000010001D2C0C8F000010001C96B0001D6
:102F7800CA6B0001D56F960E00010001CB6F0001EE
:102F8800D5510001D66F000E00010001CC6F000181
:102F9800D651DCEC0BF0C7C0D1F0C8C0D2F0C9C024
:102FA800D3F0CAC0D4F01200000E00010001E41BE7
:102FB800000E0001E51B000E0001E61B800E00015B
:102FC800E71BE0C0D1F0E1C0D2F0E2C0D3F0E3C02B
:102FD800D4F0E4C0D5F0E5C0D6F0E6C0D7F0E7C03D
:102FE800D8F06EEC03F0D1C0E0F0D2C0E1F0D3C06D
:102FF800E2F0D4C0E3F012000001CA6F000E000135
:103008000001CB6F0001CA51C7C0A9FFC9C0A8FF02
:10301800A69EA69CA684000EF2BE010E0001000129
:10302800CB6FF29E550EA76EAA0EA76EA682A6B209
:10303800FED700010001CBB102D0F29E01D0F28E82
:10304800A694120042504118D8B419D04250010D2C
:103058000101000EF324D96E0101010EF420DA6E8D
:10306800DF5000010001C86F422A1F0E42640AD0D7
:103078000001C76F000E426E0001C75103D0000166
:103088000001C86900010001C8511200D18006EC96
:1030980019F062EC18F034EC14F07DEC0DF087ECCC
:1030A80017F0B7EC18F0D08EF28EF28CB480B482A0
:1030B800B4848A7280EC0FF00400FCD79F0ED516FA
:1030C800CD8ECD8ACD88CD80000ECF6E000ECE6E0F
:1030D800F184F28A9F909D80D08EF28EF28C12003D
:1030E800E8CFC8F0C8C0C7F00001D890C7333C0E7D
:1030F8000001C717C250C30B0001C711C26EC282BC
:103108001200E8CF02F002C001F0D89001323C0E64
:103118000116C250C30B0110C26EC2821200948005
:1031280082909482829294848294958083909588E8
:103138008398958C839C1200E8CFC7F0C7C06FFFB7
:103148006E50E00B00010001C719D8B41200F8D77F
:10315800CCC0C7F0CDC0C8F0CEC0C9F000EC18F0A4
:1031680003EC19F01200000E406E000E3F6E000EC8
:103178003E6E808093EC18F01200F29430C016F086
:1031880031C017F0E6EC18F091EC14F01200C7C04B
:10319800A9FFA69CA69EA68000F000F0A8501200E9
:1031A800000E416E0001C76F000E426E0001C7514C
:1031B800120001C003F002C004F004C0CFFF03C036
:1031C800CEFF120016C018F017C019F019C0D7FFAB
:1031D80018C0D6FF120041504218D8B402D0010ED0
:1031E80001D0000E1200C9C0C7F0CAC0C8F0CBECAD
:1031F80018F01200C450026EC350016E1200A6A24D
:103208001200FDD7939093921200878F979FC282E6
:023218001200A2
:00000001FF
